{
  "_format": "hh-sol-artifact-1",
  "contractName": "SwarmTreasuryLink",
  "sourceName": "contracts/SwarmTreasuryLink.sol",
  "abi": [
    {
      "inputs": [
        {
          "internalType": "address",
          "name": "_linkToken",
          "type": "address"
        }
      ],
      "stateMutability": "nonpayable",
      "type": "constructor"
    },
    {
      "inputs": [
        {
          "internalType": "address",
          "name": "owner",
          "type": "address"
        }
      ],
      "name": "OwnableInvalidOwner",
      "type": "error"
    },
    {
      "inputs": [
        {
          "internalType": "address",
          "name": "account",
          "type": "address"
        }
      ],
      "name": "OwnableUnauthorizedAccount",
      "type": "error"
    },
    {
      "inputs": [
        {
          "internalType": "address",
          "name": "token",
          "type": "address"
        }
      ],
      "name": "SafeERC20FailedOperation",
      "type": "error"
    },
    {
      "anonymous": false,
      "inputs": [
        {
          "indexed": true,
          "internalType": "address",
          "name": "newAgent",
          "type": "address"
        },
        {
          "indexed": false,
          "internalType": "uint256",
          "name": "timestamp",
          "type": "uint256"
        }
      ],
      "name": "AgentAddressUpdated",
      "type": "event"
    },
    {
      "anonymous": false,
      "inputs": [
        {
          "indexed": true,
          "internalType": "address",
          "name": "previousOwner",
          "type": "address"
        },
        {
          "indexed": true,
          "internalType": "address",
          "name": "newOwner",
          "type": "address"
        }
      ],
      "name": "OwnershipTransferred",
      "type": "event"
    },
    {
      "anonymous": false,
      "inputs": [
        {
          "indexed": true,
          "internalType": "address",
          "name": "from",
          "type": "address"
        },
        {
          "indexed": false,
          "internalType": "uint256",
          "name": "amount",
          "type": "uint256"
        },
        {
          "indexed": false,
          "internalType": "uint256",
          "name": "timestamp",
          "type": "uint256"
        }
      ],
      "name": "RevenueDeposited",
      "type": "event"
    },
    {
      "anonymous": false,
      "inputs": [
        {
          "indexed": true,
          "internalType": "address",
          "name": "to",
          "type": "address"
        },
        {
          "indexed": false,
          "internalType": "uint256",
          "name": "amount",
          "type": "uint256"
        },
        {
          "indexed": false,
          "internalType": "uint256",
          "name": "timestamp",
          "type": "uint256"
        }
      ],
      "name": "Withdrawn",
      "type": "event"
    },
    {
      "inputs": [],
      "name": "COMPUTE_BPS",
      "outputs": [
        {
          "internalType": "uint256",
          "name": "",
          "type": "uint256"
        }
      ],
      "stateMutability": "view",
      "type": "function"
    },
    {
      "inputs": [],
      "name": "GROWTH_BPS",
      "outputs": [
        {
          "internalType": "uint256",
          "name": "",
          "type": "uint256"
        }
      ],
      "stateMutability": "view",
      "type": "function"
    },
    {
      "inputs": [],
      "name": "RESERVE_BPS",
      "outputs": [
        {
          "internalType": "uint256",
          "name": "",
          "type": "uint256"
        }
      ],
      "stateMutability": "view",
      "type": "function"
    },
    {
      "inputs": [],
      "name": "agentAddress",
      "outputs": [
        {
          "internalType": "address",
          "name": "",
          "type": "address"
        }
      ],
      "stateMutability": "view",
      "type": "function"
    },
    {
      "inputs": [],
      "name": "computeBalance",
      "outputs": [
        {
          "internalType": "uint256",
          "name": "",
          "type": "uint256"
        }
      ],
      "stateMutability": "view",
      "type": "function"
    },
    {
      "inputs": [
        {
          "internalType": "uint256",
          "name": "amount",
          "type": "uint256"
        }
      ],
      "name": "depositRevenue",
      "outputs": [],
      "stateMutability": "nonpayable",
      "type": "function"
    },
    {
      "inputs": [],
      "name": "getPnL",
      "outputs": [
        {
          "internalType": "uint256",
          "name": "_totalRevenue",
          "type": "uint256"
        },
        {
          "internalType": "uint256",
          "name": "_computeBalance",
          "type": "uint256"
        },
        {
          "internalType": "uint256",
          "name": "_growthBalance",
          "type": "uint256"
        },
        {
          "internalType": "uint256",
          "name": "_reserveBalance",
          "type": "uint256"
        }
      ],
      "stateMutability": "view",
      "type": "function"
    },
    {
      "inputs": [],
      "name": "growthBalance",
      "outputs": [
        {
          "internalType": "uint256",
          "name": "",
          "type": "uint256"
        }
      ],
      "stateMutability": "view",
      "type": "function"
    },
    {
      "inputs": [],
      "name": "linkToken",
      "outputs": [
        {
          "internalType": "contract IERC20",
          "name": "",
          "type": "address"
        }
      ],
      "stateMutability": "view",
      "type": "function"
    },
    {
      "inputs": [],
      "name": "owner",
      "outputs": [
        {
          "internalType": "address",
          "name": "",
          "type": "address"
        }
      ],
      "stateMutability": "view",
      "type": "function"
    },
    {
      "inputs": [],
      "name": "renounceOwnership",
      "outputs": [],
      "stateMutability": "nonpayable",
      "type": "function"
    },
    {
      "inputs": [],
      "name": "reserveBalance",
      "outputs": [
        {
          "internalType": "uint256",
          "name": "",
          "type": "uint256"
        }
      ],
      "stateMutability": "view",
      "type": "function"
    },
    {
      "inputs": [
        {
          "internalType": "address",
          "name": "_agentAddress",
          "type": "address"
        }
      ],
      "name": "setAgentAddress",
      "outputs": [],
      "stateMutability": "nonpayable",
      "type": "function"
    },
    {
      "inputs": [],
      "name": "totalRevenue",
      "outputs": [
        {
          "internalType": "uint256",
          "name": "",
          "type": "uint256"
        }
      ],
      "stateMutability": "view",
      "type": "function"
    },
    {
      "inputs": [
        {
          "internalType": "address",
          "name": "newOwner",
          "type": "address"
        }
      ],
      "name": "transferOwnership",
      "outputs": [],
      "stateMutability": "nonpayable",
      "type": "function"
    },
    {
      "inputs": [
        {
          "internalType": "address",
          "name": "to",
          "type": "address"
        },
        {
          "internalType": "uint256",
          "name": "amount",
          "type": "uint256"
        }
      ],
      "name": "withdraw",
      "outputs": [],
      "stateMutability": "nonpayable",
      "type": "function"
    }
  ],
  "bytecode": "0x60a060405234801561001057600080fd5b50604051610a8b380380610a8b83398101604081905261002f91610117565b338061005657604051631e4fbdf760e01b8152600060048201526024015b60405180910390fd5b61005f816100c7565b506001600160a01b0381166100b65760405162461bcd60e51b815260206004820152601460248201527f496e76616c6964204c494e4b2061646472657373000000000000000000000000604482015260640161004d565b6001600160a01b0316608052610147565b600080546001600160a01b038381166001600160a01b0319831681178455604051919092169283917f8be0079c531659141344cd1fd0a4f28419497f9722a3daafe3b4186f6b6457e09190a35050565b60006020828403121561012957600080fd5b81516001600160a01b038116811461014057600080fd5b9392505050565b6080516109146101776000396000818161016301528181610303015281816104c6015261058f01526109146000f3fe608060405234801561001057600080fd5b50600436106101005760003560e01c8063a10954fe11610097578063e41dc9f811610066578063e41dc9f814610204578063ebb6e91c1461020d578063f2fde38b14610216578063f3fef3a31461022957600080fd5b8063a10954fe146101b3578063b03c770c146101bc578063bc1ca3e9146101e8578063bf2d9e0b146101fb57600080fd5b806357970e93116100d357806357970e931461015e578063715018a614610185578063895ce1851461018f5780638da5cb5b146101a257600080fd5b806315638c68146101055780632b33152114610121578063386136901461012a57806341cfe8ab14610155575b600080fd5b61010e60035481565b6040519081526020015b60405180910390f35b61010e61138881565b60055461013d906001600160a01b031681565b6040516001600160a01b039091168152602001610118565b61010e610bb881565b61013d7f000000000000000000000000000000000000000000000000000000000000000081565b61018d61023c565b005b61018d61019d3660046107e5565b610250565b6000546001600160a01b031661013d565b61010e60045481565b600154600254600354600454604080519485526020850193909352918301526060820152608001610118565b61018d6101f6366004610807565b6102ac565b61010e60015481565b61010e6107d081565b61010e60025481565b61018d6102243660046107e5565b610420565b61018d610237366004610820565b61045e565b6102446105fe565b61024e600061062b565b565b6102586105fe565b600580546001600160a01b0319166001600160a01b0383169081179091556040514281527f3b18696bdcb9c4f995935bbac37f4fc6139b8c1317130878f3b675a849a8b8689060200160405180910390a250565b600081116102f65760405162461bcd60e51b81526020600482015260126024820152710416d6f756e74206d757374206265203e20360741b60448201526064015b60405180910390fd5b61032b6001600160a01b037f00000000000000000000000000000000000000000000000000000000000000001633308461067b565b600061271061033c61138884610860565b610346919061087d565b90506000612710610359610bb885610860565b610363919061087d565b9050600081610372848661089f565b61037c919061089f565b9050836001600082825461039091906108b2565b9250508190555082600260008282546103a991906108b2565b9250508190555081600360008282546103c291906108b2565b9250508190555080600460008282546103db91906108b2565b90915550506040805185815242602082015233917f2f22b7f6e7f7df7d0eb3d1a543a2b6eb906e76a03540c2d66d2725270a5f6d31910160405180910390a250505050565b6104286105fe565b6001600160a01b03811661045257604051631e4fbdf760e01b8152600060048201526024016102ed565b61045b8161062b565b50565b6104666105fe565b6001600160a01b0382166104ae5760405162461bcd60e51b815260206004820152600f60248201526e496e76616c6964206164647265737360881b60448201526064016102ed565b6040516370a0823160e01b81523060048201526000907f00000000000000000000000000000000000000000000000000000000000000006001600160a01b0316906370a0823190602401602060405180830381865afa158015610515573d6000803e3d6000fd5b505050506040513d601f19601f8201168201806040525081019061053991906108c5565b9050808211156105825760405162461bcd60e51b8152602060048201526014602482015273496e73756666696369656e742062616c616e636560601b60448201526064016102ed565b6105b66001600160a01b037f00000000000000000000000000000000000000000000000000000000000000001684846106b7565b604080518381524260208201526001600160a01b038516917f92ccf450a286a957af52509bc1c9939d1a6a481783e142e41e2499f0bb66ebc6910160405180910390a2505050565b6000546001600160a01b0316331461024e5760405163118cdaa760e01b81523360048201526024016102ed565b600080546001600160a01b038381166001600160a01b0319831681178455604051919092169283917f8be0079c531659141344cd1fd0a4f28419497f9722a3daafe3b4186f6b6457e09190a35050565b6106898484848460016106f1565b6106b157604051635274afe760e01b81526001600160a01b03851660048201526024016102ed565b50505050565b6106c48383836001610763565b6106ec57604051635274afe760e01b81526001600160a01b03841660048201526024016102ed565b505050565b6040516323b872dd60e01b60008181526001600160a01b038781166004528616602452604485905291602083606481808c5af192506001600051148316610751578383151615610744573d6000823e3d81fd5b6000883b113d1516831692505b60405250600060605295945050505050565b60405163a9059cbb60e01b60008181526001600160a01b038616600452602485905291602083604481808b5af1925060016000511483166107bd5783831516156107b0573d6000823e3d81fd5b6000873b113d1516831692505b60405250949350505050565b80356001600160a01b03811681146107e057600080fd5b919050565b6000602082840312156107f757600080fd5b610800826107c9565b9392505050565b60006020828403121561081957600080fd5b5035919050565b6000806040838503121561083357600080fd5b61083c836107c9565b946020939093013593505050565b634e487b7160e01b600052601160045260246000fd5b80820281158282048414176108775761087761084a565b92915050565b60008261089a57634e487b7160e01b600052601260045260246000fd5b500490565b818103818111156108775761087761084a565b808201808211156108775761087761084a565b6000602082840312156108d757600080fd5b505191905056fea2646970667358221220ceeaadc3bc9ee9acfd55876464b6c343b64b22c78620bcef9b8e636b7d3dd8a164736f6c63430008180033",
  "linkReferences": {},
  "deployedLinkReferences": {}
}