{"contracts/SwarmTaskBoardLink.sol":{"SwarmTaskBoardLink":{"abi":[{"inputs":[{"internalType":"address","name":"_linkToken","type":"address"}],"stateMutability":"nonpayable","type":"constructor"},{"inputs":[{"internalType":"address","name":"owner","type":"address"}],"name":"OwnableInvalidOwner","type":"error"},{"inputs":[{"internalType":"address","name":"account","type":"address"}],"name":"OwnableUnauthorizedAccount","type":"error"},{"inputs":[{"internalType":"address","name":"token","type":"address"}],"name":"SafeERC20FailedOperation","type":"error"},{"anonymous":false,"inputs":[{"indexed":true,"internalType":"uint256","name":"taskId","type":"uint256"},{"indexed":true,"internalType":"address","name":"agent","type":"address"},{"indexed":false,"internalType":"uint256","name":"payout","type":"uint256"},{"indexed":false,"internalType":"uint256","name":"timestamp","type":"uint256"}],"name":"DeliveryApproved","type":"event"},{"anonymous":false,"inputs":[{"indexed":true,"internalType":"uint256","name":"taskId","type":"uint256"},{"indexed":true,"internalType":"address","name":"poster","type":"address"},{"indexed":false,"internalType":"uint256","name":"timestamp","type":"uint256"}],"name":"DeliveryDisputed","type":"event"},{"anonymous":false,"inputs":[{"indexed":true,"internalType":"uint256","name":"taskId","type":"uint256"},{"indexed":true,"internalType":"address","name":"agent","type":"address"},{"indexed":false,"internalType":"bytes32","name":"deliveryHash","type":"bytes32"},{"indexed":false,"internalType":"uint256","name":"timestamp","type":"uint256"}],"name":"DeliverySubmitted","type":"event"},{"anonymous":false,"inputs":[{"indexed":true,"internalType":"address","name":"previousOwner","type":"address"},{"indexed":true,"internalType":"address","name":"newOwner","type":"address"}],"name":"OwnershipTransferred","type":"event"},{"anonymous":false,"inputs":[{"indexed":true,"internalType":"uint256","name":"taskId","type":"uint256"},{"indexed":true,"internalType":"address","name":"agent","type":"address"},{"indexed":false,"internalType":"uint256","name":"timestamp","type":"uint256"}],"name":"TaskClaimed","type":"event"},{"anonymous":false,"inputs":[{"indexed":true,"internalType":"uint256","name":"taskId","type":"uint256"},{"indexed":true,"internalType":"address","name":"poster","type":"address"},{"indexed":false,"internalType":"address","name":"vault","type":"address"},{"indexed":false,"internalType":"string","name":"title","type":"string"},{"indexed":false,"internalType":"uint256","name":"budget","type":"uint256"},{"indexed":false,"internalType":"uint256","name":"deadline","type":"uint256"},{"indexed":false,"internalType":"uint256","name":"timestamp","type":"uint256"}],"name":"TaskPosted","type":"event"},{"inputs":[{"internalType":"uint256","name":"taskId","type":"uint256"}],"name":"approveDelivery","outputs":[],"stateMutability":"nonpayable","type":"function"},{"inputs":[{"internalType":"uint256","name":"taskId","type":"uint256"}],"name":"claimTask","outputs":[],"stateMutability":"nonpayable","type":"function"},{"inputs":[{"internalType":"uint256","name":"taskId","type":"uint256"}],"name":"disputeDelivery","outputs":[],"stateMutability":"nonpayable","type":"function"},{"inputs":[],"name":"getAllTasks","outputs":[{"components":[{"internalType":"uint256","name":"taskId","type":"uint256"},{"internalType":"address","name":"vault","type":"address"},{"internalType":"string","name":"title","type":"string"},{"internalType":"string","name":"description","type":"string"},{"internalType":"string","name":"requiredSkills","type":"string"},{"internalType":"uint256","name":"deadline","type":"uint256"},{"internalType":"uint256","name":"budget","type":"uint256"},{"internalType":"address","name":"poster","type":"address"},{"internalType":"address","name":"claimedBy","type":"address"},{"internalType":"bytes32","name":"deliveryHash","type":"bytes32"},{"internalType":"uint256","name":"createdAt","type":"uint256"},{"internalType":"uint8","name":"status","type":"uint8"}],"internalType":"struct SwarmTaskBoardLink.Task[]","name":"","type":"tuple[]"}],"stateMutability":"view","type":"function"},{"inputs":[],"name":"getOpenTasks","outputs":[{"components":[{"internalType":"uint256","name":"taskId","type":"uint256"},{"internalType":"address","name":"vault","type":"address"},{"internalType":"string","name":"title","type":"string"},{"internalType":"string","name":"description","type":"string"},{"internalType":"string","name":"requiredSkills","type":"string"},{"internalType":"uint256","name":"deadline","type":"uint256"},{"internalType":"uint256","name":"budget","type":"uint256"},{"internalType":"address","name":"poster","type":"address"},{"internalType":"address","name":"claimedBy","type":"address"},{"internalType":"bytes32","name":"deliveryHash","type":"bytes32"},{"internalType":"uint256","name":"createdAt","type":"uint256"},{"internalType":"uint8","name":"status","type":"uint8"}],"internalType":"struct SwarmTaskBoardLink.Task[]","name":"","type":"tuple[]"}],"stateMutability":"view","type":"function"},{"inputs":[{"internalType":"uint256","name":"taskId","type":"uint256"}],"name":"getTask","outputs":[{"components":[{"internalType":"uint256","name":"taskId","type":"uint256"},{"internalType":"address","name":"vault","type":"address"},{"internalType":"string","name":"title","type":"string"},{"internalType":"string","name":"description","type":"string"},{"internalType":"string","name":"requiredSkills","type":"string"},{"internalType":"uint256","name":"deadline","type":"uint256"},{"internalType":"uint256","name":"budget","type":"uint256"},{"internalType":"address","name":"poster","type":"address"},{"internalType":"address","name":"claimedBy","type":"address"},{"internalType":"bytes32","name":"deliveryHash","type":"bytes32"},{"internalType":"uint256","name":"createdAt","type":"uint256"},{"internalType":"uint8","name":"status","type":"uint8"}],"internalType":"struct SwarmTaskBoardLink.Task","name":"","type":"tuple"}],"stateMutability":"view","type":"function"},{"inputs":[],"name":"linkToken","outputs":[{"internalType":"contract IERC20","name":"","type":"address"}],"stateMutability":"view","type":"function"},{"inputs":[],"name":"owner","outputs":[{"internalType":"address","name":"","type":"address"}],"stateMutability":"view","type":"function"},{"inputs":[{"internalType":"address","name":"vault","type":"address"},{"internalType":"string","name":"title","type":"string"},{"internalType":"string","name":"description","type":"string"},{"internalType":"string","name":"requiredSkills","type":"string"},{"internalType":"uint256","name":"deadline","type":"uint256"},{"internalType":"uint256","name":"budgetLink","type":"uint256"}],"name":"postTask","outputs":[],"stateMutability":"nonpayable","type":"function"},{"inputs":[],"name":"renounceOwnership","outputs":[],"stateMutability":"nonpayable","type":"function"},{"inputs":[{"internalType":"uint256","name":"taskId","type":"uint256"},{"internalType":"bytes32","name":"deliveryHash","type":"bytes32"}],"name":"submitDelivery","outputs":[],"stateMutability":"nonpayable","type":"function"},{"inputs":[],"name":"taskCount","outputs":[{"internalType":"uint256","name":"","type":"uint256"}],"stateMutability":"view","type":"function"},{"inputs":[{"internalType":"uint256","name":"","type":"uint256"}],"name":"tasks","outputs":[{"internalType":"uint256","name":"taskId","type":"uint256"},{"internalType":"address","name":"vault","type":"address"},{"internalType":"string","name":"title","type":"string"},{"internalType":"string","name":"description","type":"string"},{"internalType":"string","name":"requiredSkills","type":"string"},{"internalType":"uint256","name":"deadline","type":"uint256"},{"internalType":"uint256","name":"budget","type":"uint256"},{"internalType":"address","name":"poster","type":"address"},{"internalType":"address","name":"claimedBy","type":"address"},{"internalType":"bytes32","name":"deliveryHash","type":"bytes32"},{"internalType":"uint256","name":"createdAt","type":"uint256"},{"internalType":"uint8","name":"status","type":"uint8"}],"stateMutability":"view","type":"function"},{"inputs":[{"internalType":"address","name":"newOwner","type":"address"}],"name":"transferOwnership","outputs":[],"stateMutability":"nonpayable","type":"function"}],"evm":{"bytecode":{"linkReferences":{},"object":"60a06040523480156200001157600080fd5b506040516200205d3803806200205d833981016040819052620000349162000122565b33806200005c57604051631e4fbdf760e01b8152600060048201526024015b60405180910390fd5b6200006781620000d2565b506001600160a01b038116620000c05760405162461bcd60e51b815260206004820152601460248201527f496e76616c6964204c494e4b2061646472657373000000000000000000000000604482015260640162000053565b6001600160a01b031660805262000154565b600080546001600160a01b038381166001600160a01b0319831681178455604051919092169283917f8be0079c531659141344cd1fd0a4f28419497f9722a3daafe3b4186f6b6457e09190a35050565b6000602082840312156200013557600080fd5b81516001600160a01b03811681146200014d57600080fd5b9392505050565b608051611edf6200017e6000396000818161013201528181610588015261109b0152611edf6000f3fe608060405234801561001057600080fd5b50600436106100ea5760003560e01c80638dd334951161008c578063c94b674b11610066578063c94b674b146101fc578063d5a82aa01461020f578063d8dc8c2814610217578063f2fde38b1461022a57600080fd5b80638dd33495146101c5578063adcb9f04146101d8578063b6cb58a5146101eb57600080fd5b8063715018a6116100c8578063715018a61461016c578063779900b4146101745780638d977672146101895780638da5cb5b146101b457600080fd5b80631d65e77e146100ef5780632e4378f21461011857806357970e931461012d575b600080fd5b6101026100fd3660046118b0565b61023d565b60405161010f91906119f0565b60405180910390f35b61012b610126366004611a6f565b6104e7565b005b6101547f000000000000000000000000000000000000000000000000000000000000000081565b6040516001600160a01b03909116815260200161010f565b61012b610812565b61017c610826565b60405161010f9190611b2c565b61019c6101973660046118b0565b610ab7565b60405161010f9c9b9a99989796959493929190611b90565b6000546001600160a01b0316610154565b61012b6101d33660046118b0565b610cd8565b61012b6101e63660046118b0565b610e56565b60015460405190815260200161010f565b61012b61020a3660046118b0565b610f66565b61017c61111b565b61012b610225366004611c2c565b61151b565b61012b610238366004611c4e565b611625565b61024561182e565b600154821061026f5760405162461bcd60e51b815260040161026690611c69565b60405180910390fd5b6001828154811061028257610282611c8f565b90600052602060002090600c020160405180610180016040529081600082015481526020016001820160009054906101000a90046001600160a01b03166001600160a01b03166001600160a01b031681526020016002820180546102e590611ca5565b80601f016020809104026020016040519081016040528092919081815260200182805461031190611ca5565b801561035e5780601f106103335761010080835404028352916020019161035e565b820191906000526020600020905b81548152906001019060200180831161034157829003601f168201915b5050505050815260200160038201805461037790611ca5565b80601f01602080910402602001604051908101604052809291908181526020018280546103a390611ca5565b80156103f05780601f106103c5576101008083540402835291602001916103f0565b820191906000526020600020905b8154815290600101906020018083116103d357829003601f168201915b5050505050815260200160048201805461040990611ca5565b80601f016020809104026020016040519081016040528092919081815260200182805461043590611ca5565b80156104825780601f1061045757610100808354040283529160200191610482565b820191906000526020600020905b81548152906001019060200180831161046557829003601f168201915b5050509183525050600582015460208201526006820154604082015260078201546001600160a01b0390811660608301526008830154166080820152600982015460a0820152600a82015460c0820152600b9091015460ff1660e09091015292915050565b6000811161052c5760405162461bcd60e51b81526020600482015260126024820152710427564676574206d757374206265203e20360741b6044820152606401610266565b42821161057b5760405162461bcd60e51b815260206004820152601e60248201527f446561646c696e65206d75737420626520696e207468652066757475726500006044820152606401610266565b6105b06001600160a01b037f000000000000000000000000000000000000000000000000000000000000000016333084611663565b6000600180549050905060016040518061018001604052808381526020018c6001600160a01b031681526020018b8b8080601f016020809104026020016040519081016040528093929190818152602001838380828437600092019190915250505090825250604080516020601f8c018190048102820181019092528a815291810191908b908b9081908401838280828437600092019190915250505090825250604080516020601f8a01819004810282018101909252888152918101919089908990819084018382808284376000920182905250938552505050602080830188905260408084018890523360608501526080840183905260a084018390524260c085015260e0909301829052845460018082018755958352918190208451600c9093020191825583015193810180546001600160a01b0319166001600160a01b039095169490941790935581015190919060028201906107119082611d45565b50606082015160038201906107269082611d45565b506080820151600482019061073b9082611d45565b5060a0820151600582015560c0820151600682015560e08201516007820180546001600160a01b039283166001600160a01b0319918216179091556101008401516008840180549190931691161790556101208201516009820155610140820151600a82015561016090910151600b909101805460ff90921660ff19909216919091179055604051339082907f9b42930ad4e290d8dee06239f9fea97913af1e2a02b7ca78cc074a2672459677906107fe908e908e908e9089908b904290611e05565b60405180910390a350505050505050505050565b61081a61169f565b61082460006116cc565b565b60606001805480602002602001604051908101604052809291908181526020016000905b82821015610aae5760008481526020908190206040805161018081018252600c86029092018054835260018101546001600160a01b0316938301939093526002830180549293929184019161089e90611ca5565b80601f01602080910402602001604051908101604052809291908181526020018280546108ca90611ca5565b80156109175780601f106108ec57610100808354040283529160200191610917565b820191906000526020600020905b8154815290600101906020018083116108fa57829003601f168201915b5050505050815260200160038201805461093090611ca5565b80601f016020809104026020016040519081016040528092919081815260200182805461095c90611ca5565b80156109a95780601f1061097e576101008083540402835291602001916109a9565b820191906000526020600020905b81548152906001019060200180831161098c57829003601f168201915b505050505081526020016004820180546109c290611ca5565b80601f01602080910402602001604051908101604052809291908181526020018280546109ee90611ca5565b8015610a3b5780601f10610a1057610100808354040283529160200191610a3b565b820191906000526020600020905b815481529060010190602001808311610a1e57829003601f168201915b505050918352505060058201546020808301919091526006830154604083015260078301546001600160a01b0390811660608401526008840154166080830152600983015460a0830152600a83015460c0830152600b9092015460ff1660e090910152908252600192909201910161084a565b50505050905090565b60018181548110610ac757600080fd5b60009182526020909120600c90910201805460018201546002830180549294506001600160a01b039091169291610afd90611ca5565b80601f0160208091040260200160405190810160405280929190818152602001828054610b2990611ca5565b8015610b765780601f10610b4b57610100808354040283529160200191610b76565b820191906000526020600020905b815481529060010190602001808311610b5957829003601f168201915b505050505090806003018054610b8b90611ca5565b80601f0160208091040260200160405190810160405280929190818152602001828054610bb790611ca5565b8015610c045780601f10610bd957610100808354040283529160200191610c04565b820191906000526020600020905b815481529060010190602001808311610be757829003601f168201915b505050505090806004018054610c1990611ca5565b80601f0160208091040260200160405190810160405280929190818152602001828054610c4590611ca5565b8015610c925780601f10610c6757610100808354040283529160200191610c92565b820191906000526020600020905b815481529060010190602001808311610c7557829003601f168201915b50505060058401546006850154600786015460088701546009880154600a890154600b90990154979894979396506001600160a01b039283169550911692909160ff168c565b6001548110610cf95760405162461bcd60e51b815260040161026690611c69565b600060018281548110610d0e57610d0e611c8f565b600091825260208220600c909102019150600b82015460ff908116911614610d635760405162461bcd60e51b81526020600482015260086024820152672737ba1037b832b760c11b6044820152606401610266565b42816005015411610da05760405162461bcd60e51b8152602060048201526007602482015266115e1c1a5c995960ca1b6044820152606401610266565b6007810154336001600160a01b0390911603610df65760405162461bcd60e51b815260206004820152601560248201527443616e6e6f7420636c61696d206f776e207461736b60581b6044820152606401610266565b6008810180546001600160a01b03191633908117909155600b8201805460ff1916600117905560405142815283907f6d8a5bca396094eff00461dbcb1d176cb6722fd703396e3740f4acfcd740ffc4906020015b60405180910390a35050565b6001548110610e775760405162461bcd60e51b815260040161026690611c69565b600060018281548110610e8c57610e8c611c8f565b60009182526020909120600b600c909202019081015490915060ff16600114610ec75760405162461bcd60e51b815260040161026690611e5d565b60078101546001600160a01b03163314610f235760405162461bcd60e51b815260206004820152601760248201527f4f6e6c7920706f737465722063616e20646973707574650000000000000000006044820152606401610266565b600b8101805460ff19166004179055604051428152339083907f9cab8b174c1c853578541b419dc79e025a449c66d71e9dd05327ff94007b58ec90602001610e4a565b6001548110610f875760405162461bcd60e51b815260040161026690611c69565b600060018281548110610f9c57610f9c611c8f565b60009182526020909120600b600c909202019081015490915060ff16600114610fd75760405162461bcd60e51b815260040161026690611e5d565b60078101546001600160a01b031633146110335760405162461bcd60e51b815260206004820152601760248201527f4f6e6c7920706f737465722063616e20617070726f76650000000000000000006044820152606401610266565b600981015461107c5760405162461bcd60e51b8152602060048201526015602482015274139bc819195b1a5d995c9e481cdd589b5a5d1d1959605a1b6044820152606401610266565b600b8101805460ff19166002179055600881015460068201546110ce917f00000000000000000000000000000000000000000000000000000000000000006001600160a01b039081169291169061171c565b60088101546006820154604080519182524260208301526001600160a01b039092169184917faee1d406ddee631acba8b4ca4c809b6b0dd885440fcfec1e146bc1d9734612d29101610e4a565b60606000805b6001548110156111a557600060ff166001828154811061114357611143611c8f565b60009182526020909120600b600c90920201015460ff1614801561118a5750426001828154811061117657611176611c8f565b90600052602060002090600c020160050154115b1561119d578161119981611e82565b9250505b600101611121565b5060008167ffffffffffffffff8111156111c1576111c1611cdf565b6040519080825280602002602001820160405280156111fa57816020015b6111e761182e565b8152602001906001900390816111df5790505b5090506000805b60015481101561151257600060ff166001828154811061122357611223611c8f565b60009182526020909120600b600c90920201015460ff1614801561126a5750426001828154811061125657611256611c8f565b90600052602060002090600c020160050154115b1561150a576001818154811061128257611282611c8f565b90600052602060002090600c020160405180610180016040529081600082015481526020016001820160009054906101000a90046001600160a01b03166001600160a01b03166001600160a01b031681526020016002820180546112e590611ca5565b80601f016020809104026020016040519081016040528092919081815260200182805461131190611ca5565b801561135e5780601f106113335761010080835404028352916020019161135e565b820191906000526020600020905b81548152906001019060200180831161134157829003601f168201915b5050505050815260200160038201805461137790611ca5565b80601f01602080910402602001604051908101604052809291908181526020018280546113a390611ca5565b80156113f05780601f106113c5576101008083540402835291602001916113f0565b820191906000526020600020905b8154815290600101906020018083116113d357829003601f168201915b5050505050815260200160048201805461140990611ca5565b80601f016020809104026020016040519081016040528092919081815260200182805461143590611ca5565b80156114825780601f1061145757610100808354040283529160200191611482565b820191906000526020600020905b81548152906001019060200180831161146557829003601f168201915b5050509183525050600582015460208201526006820154604082015260078201546001600160a01b0390811660608301526008830154166080820152600982015460a0820152600a82015460c0820152600b9091015460ff1660e09091015283836114ec81611e82565b9450815181106114fe576114fe611c8f565b60200260200101819052505b600101611201565b50909392505050565b600154821061153c5760405162461bcd60e51b815260040161026690611c69565b60006001838154811061155157611551611c8f565b60009182526020909120600b600c909202019081015490915060ff1660011461158c5760405162461bcd60e51b815260040161026690611e5d565b60088101546001600160a01b031633146115dd5760405162461bcd60e51b8152602060048201526012602482015271139bdd08185cdcda59db9959081859d95b9d60721b6044820152606401610266565b6009810182905560408051838152426020820152339185917ff46a13d6d6628b4030d28874eaa1507890be050b8d2a85ced0bf95c46229bab5910160405180910390a3505050565b61162d61169f565b6001600160a01b03811661165757604051631e4fbdf760e01b815260006004820152602401610266565b611660816116cc565b50565b611671848484846001611756565b61169957604051635274afe760e01b81526001600160a01b0385166004820152602401610266565b50505050565b6000546001600160a01b031633146108245760405163118cdaa760e01b8152336004820152602401610266565b600080546001600160a01b038381166001600160a01b0319831681178455604051919092169283917f8be0079c531659141344cd1fd0a4f28419497f9722a3daafe3b4186f6b6457e09190a35050565b61172983838360016117c8565b61175157604051635274afe760e01b81526001600160a01b0384166004820152602401610266565b505050565b6040516323b872dd60e01b60008181526001600160a01b038781166004528616602452604485905291602083606481808c5af1925060016000511483166117b65783831516156117a9573d6000823e3d81fd5b6000883b113d1516831692505b60405250600060605295945050505050565b60405163a9059cbb60e01b60008181526001600160a01b038616600452602485905291602083604481808b5af192506001600051148316611822578383151615611815573d6000823e3d81fd5b6000873b113d1516831692505b60405250949350505050565b6040518061018001604052806000815260200160006001600160a01b03168152602001606081526020016060815260200160608152602001600081526020016000815260200160006001600160a01b0316815260200160006001600160a01b031681526020016000801916815260200160008152602001600060ff1681525090565b6000602082840312156118c257600080fd5b5035919050565b6000815180845260005b818110156118ef576020818501810151868301820152016118d3565b506000602082860101526020601f19601f83011685010191505092915050565b600061018082518452602083015161193260208601826001600160a01b03169052565b50604083015181604086015261194a828601826118c9565b9150506060830151848203606086015261196482826118c9565b9150506080830151848203608086015261197e82826118c9565b91505060a083015160a085015260c083015160c085015260e08301516119af60e08601826001600160a01b03169052565b50610100838101516001600160a01b031690850152610120808401519085015261014080840151908501526101609283015160ff1692909301919091525090565b602081526000611a03602083018461190f565b9392505050565b80356001600160a01b0381168114611a2157600080fd5b919050565b60008083601f840112611a3857600080fd5b50813567ffffffffffffffff811115611a5057600080fd5b602083019150836020828501011115611a6857600080fd5b9250929050565b600080600080600080600080600060c08a8c031215611a8d57600080fd5b611a968a611a0a565b985060208a013567ffffffffffffffff80821115611ab357600080fd5b611abf8d838e01611a26565b909a50985060408c0135915080821115611ad857600080fd5b611ae48d838e01611a26565b909850965060608c0135915080821115611afd57600080fd5b50611b0a8c828d01611a26565b9a9d999c50979a96999598959660808101359660a09091013595509350505050565b600060208083016020845280855180835260408601915060408160051b87010192506020870160005b82811015611b8357603f19888603018452611b7185835161190f565b94509285019290850190600101611b55565b5092979650505050505050565b8c81526001600160a01b038c8116602083015261018060408301819052600091611bbc8483018f6118c9565b91508382036060850152611bd0828e6118c9565b91508382036080850152611be4828d6118c9565b60a085019b909b5260c0840199909952505094861660e08601529290941661010084015261012083015261014082019290925260ff9091166101609091015295945050505050565b60008060408385031215611c3f57600080fd5b50508035926020909101359150565b600060208284031215611c6057600080fd5b611a0382611a0a565b6020808252600c908201526b496e76616c6964207461736b60a01b604082015260600190565b634e487b7160e01b600052603260045260246000fd5b600181811c90821680611cb957607f821691505b602082108103611cd957634e487b7160e01b600052602260045260246000fd5b50919050565b634e487b7160e01b600052604160045260246000fd5b601f821115611751576000816000526020600020601f850160051c81016020861015611d1e5750805b601f850160051c820191505b81811015611d3d57828155600101611d2a565b505050505050565b815167ffffffffffffffff811115611d5f57611d5f611cdf565b611d7381611d6d8454611ca5565b84611cf5565b602080601f831160018114611da85760008415611d905750858301515b600019600386901b1c1916600185901b178555611d3d565b600085815260208120601f198616915b82811015611dd757888601518255948401946001909101908401611db8565b5085821015611df55787850151600019600388901b60f8161c191681555b5050505050600190811b01905550565b6001600160a01b038716815260a0602082018190528101859052848660c0830137600060c08683010152600060c0601f19601f8801168301019050846040830152836060830152826080830152979650505050505050565b6020808252600b908201526a139bdd0818db185a5b595960aa1b604082015260600190565b600060018201611ea257634e487b7160e01b600052601160045260246000fd5b506001019056fea2646970667358221220b8ff9c5bfb0c6f1274806557fc90fbd90e41fb2400eb828c667073d7e51732b764736f6c63430008180033","opcodes":"PUSH1 0xA0 PUSH1 0x40 MSTORE CALLVALUE DUP1 ISZERO PUSH3 0x11 JUMPI PUSH1 0x0 DUP1 REVERT JUMPDEST POP PUSH1 0x40 MLOAD PUSH3 0x205D CODESIZE SUB DUP1 PUSH3 0x205D DUP4 CODECOPY DUP2 ADD PUSH1 0x40 DUP2 SWAP1 MSTORE PUSH3 0x34 SWAP2 PUSH3 0x122 JUMP JUMPDEST CALLER DUP1 PUSH3 0x5C JUMPI PUSH1 0x40 MLOAD PUSH4 0x1E4FBDF7 PUSH1 0xE0 SHL DUP2 MSTORE PUSH1 0x0 PUSH1 0x4 DUP3 ADD MSTORE PUSH1 0x24 ADD JUMPDEST PUSH1 0x40 MLOAD DUP1 SWAP2 SUB SWAP1 REVERT JUMPDEST PUSH3 0x67 DUP2 PUSH3 0xD2 JUMP JUMPDEST POP PUSH1 0x1 PUSH1 0x1 PUSH1 0xA0 SHL SUB DUP2 AND PUSH3 0xC0 JUMPI PUSH1 0x40 MLOAD PUSH3 0x461BCD PUSH1 0xE5 SHL DUP2 MSTORE PUSH1 0x20 PUSH1 0x4 DUP3 ADD MSTORE PUSH1 0x14 PUSH1 0x24 DUP3 ADD MSTORE PUSH32 0x496E76616C6964204C494E4B2061646472657373000000000000000000000000 PUSH1 0x44 DUP3 ADD MSTORE PUSH1 0x64 ADD PUSH3 0x53 JUMP JUMPDEST PUSH1 0x1 PUSH1 0x1 PUSH1 0xA0 SHL SUB AND PUSH1 0x80 MSTORE PUSH3 0x154 JUMP JUMPDEST PUSH1 0x0 DUP1 SLOAD PUSH1 0x1 PUSH1 0x1 PUSH1 0xA0 SHL SUB DUP4 DUP2 AND PUSH1 0x1 PUSH1 0x1 PUSH1 0xA0 SHL SUB NOT DUP4 AND DUP2 OR DUP5 SSTORE PUSH1 0x40 MLOAD SWAP2 SWAP1 SWAP3 AND SWAP3 DUP4 SWAP2 PUSH32 0x8BE0079C531659141344CD1FD0A4F28419497F9722A3DAAFE3B4186F6B6457E0 SWAP2 SWAP1 LOG3 POP POP JUMP JUMPDEST PUSH1 0x0 PUSH1 0x20 DUP3 DUP5 SUB SLT ISZERO PUSH3 0x135 JUMPI PUSH1 0x0 DUP1 REVERT JUMPDEST DUP2 MLOAD PUSH1 0x1 PUSH1 0x1 PUSH1 0xA0 SHL SUB DUP2 AND DUP2 EQ PUSH3 0x14D JUMPI PUSH1 0x0 DUP1 REVERT JUMPDEST SWAP4 SWAP3 POP POP POP JUMP JUMPDEST PUSH1 0x80 MLOAD PUSH2 0x1EDF PUSH3 0x17E PUSH1 0x0 CODECOPY PUSH1 0x0 DUP2 DUP2 PUSH2 0x132 ADD MSTORE DUP2 DUP2 PUSH2 0x588 ADD MSTORE PUSH2 0x109B ADD MSTORE PUSH2 0x1EDF PUSH1 0x0 RETURN INVALID PUSH1 0x80 PUSH1 0x40 MSTORE CALLVALUE DUP1 ISZERO PUSH2 0x10 JUMPI PUSH1 0x0 DUP1 REVERT JUMPDEST POP PUSH1 0x4 CALLDATASIZE LT PUSH2 0xEA JUMPI PUSH1 0x0 CALLDATALOAD PUSH1 0xE0 SHR DUP1 PUSH4 0x8DD33495 GT PUSH2 0x8C JUMPI DUP1 PUSH4 0xC94B674B GT PUSH2 0x66 JUMPI DUP1 PUSH4 0xC94B674B EQ PUSH2 0x1FC JUMPI DUP1 PUSH4 0xD5A82AA0 EQ PUSH2 0x20F JUMPI DUP1 PUSH4 0xD8DC8C28 EQ PUSH2 0x217 JUMPI DUP1 PUSH4 0xF2FDE38B EQ PUSH2 0x22A JUMPI PUSH1 0x0 DUP1 REVERT JUMPDEST DUP1 PUSH4 0x8DD33495 EQ PUSH2 0x1C5 JUMPI DUP1 PUSH4 0xADCB9F04 EQ PUSH2 0x1D8 JUMPI DUP1 PUSH4 0xB6CB58A5 EQ PUSH2 0x1EB JUMPI PUSH1 0x0 DUP1 REVERT JUMPDEST DUP1 PUSH4 0x715018A6 GT PUSH2 0xC8 JUMPI DUP1 PUSH4 0x715018A6 EQ PUSH2 0x16C JUMPI DUP1 PUSH4 0x779900B4 EQ PUSH2 0x174 JUMPI DUP1 PUSH4 0x8D977672 EQ PUSH2 0x189 JUMPI DUP1 PUSH4 0x8DA5CB5B EQ PUSH2 0x1B4 JUMPI PUSH1 0x0 DUP1 REVERT JUMPDEST DUP1 PUSH4 0x1D65E77E EQ PUSH2 0xEF JUMPI DUP1 PUSH4 0x2E4378F2 EQ PUSH2 0x118 JUMPI DUP1 PUSH4 0x57970E93 EQ PUSH2 0x12D JUMPI JUMPDEST PUSH1 0x0 DUP1 REVERT JUMPDEST PUSH2 0x102 PUSH2 0xFD CALLDATASIZE PUSH1 0x4 PUSH2 0x18B0 JUMP JUMPDEST PUSH2 0x23D JUMP JUMPDEST PUSH1 0x40 MLOAD PUSH2 0x10F SWAP2 SWAP1 PUSH2 0x19F0 JUMP JUMPDEST PUSH1 0x40 MLOAD DUP1 SWAP2 SUB SWAP1 RETURN JUMPDEST PUSH2 0x12B PUSH2 0x126 CALLDATASIZE PUSH1 0x4 PUSH2 0x1A6F JUMP JUMPDEST PUSH2 0x4E7 JUMP JUMPDEST STOP JUMPDEST PUSH2 0x154 PUSH32 0x0 DUP2 JUMP JUMPDEST PUSH1 0x40 MLOAD PUSH1 0x1 PUSH1 0x1 PUSH1 0xA0 SHL SUB SWAP1 SWAP2 AND DUP2 MSTORE PUSH1 0x20 ADD PUSH2 0x10F JUMP JUMPDEST PUSH2 0x12B PUSH2 0x812 JUMP JUMPDEST PUSH2 0x17C PUSH2 0x826 JUMP JUMPDEST PUSH1 0x40 MLOAD PUSH2 0x10F SWAP2 SWAP1 PUSH2 0x1B2C JUMP JUMPDEST PUSH2 0x19C PUSH2 0x197 CALLDATASIZE PUSH1 0x4 PUSH2 0x18B0 JUMP JUMPDEST PUSH2 0xAB7 JUMP JUMPDEST PUSH1 0x40 MLOAD PUSH2 0x10F SWAP13 SWAP12 SWAP11 SWAP10 SWAP9 SWAP8 SWAP7 SWAP6 SWAP5 SWAP4 SWAP3 SWAP2 SWAP1 PUSH2 0x1B90 JUMP JUMPDEST PUSH1 0x0 SLOAD PUSH1 0x1 PUSH1 0x1 PUSH1 0xA0 SHL SUB AND PUSH2 0x154 JUMP JUMPDEST PUSH2 0x12B PUSH2 0x1D3 CALLDATASIZE PUSH1 0x4 PUSH2 0x18B0 JUMP JUMPDEST PUSH2 0xCD8 JUMP JUMPDEST PUSH2 0x12B PUSH2 0x1E6 CALLDATASIZE PUSH1 0x4 PUSH2 0x18B0 JUMP JUMPDEST PUSH2 0xE56 JUMP JUMPDEST PUSH1 0x1 SLOAD PUSH1 0x40 MLOAD SWAP1 DUP2 MSTORE PUSH1 0x20 ADD PUSH2 0x10F JUMP JUMPDEST PUSH2 0x12B PUSH2 0x20A CALLDATASIZE PUSH1 0x4 PUSH2 0x18B0 JUMP JUMPDEST PUSH2 0xF66 JUMP JUMPDEST PUSH2 0x17C PUSH2 0x111B JUMP JUMPDEST PUSH2 0x12B PUSH2 0x225 CALLDATASIZE PUSH1 0x4 PUSH2 0x1C2C JUMP JUMPDEST PUSH2 0x151B JUMP JUMPDEST PUSH2 0x12B PUSH2 0x238 CALLDATASIZE PUSH1 0x4 PUSH2 0x1C4E JUMP JUMPDEST PUSH2 0x1625 JUMP JUMPDEST PUSH2 0x245 PUSH2 0x182E JUMP JUMPDEST PUSH1 0x1 SLOAD DUP3 LT PUSH2 0x26F JUMPI PUSH1 0x40 MLOAD PUSH3 0x461BCD PUSH1 0xE5 SHL DUP2 MSTORE PUSH1 0x4 ADD PUSH2 0x266 SWAP1 PUSH2 0x1C69 JUMP JUMPDEST PUSH1 0x40 MLOAD DUP1 SWAP2 SUB SWAP1 REVERT JUMPDEST PUSH1 0x1 DUP3 DUP2 SLOAD DUP2 LT PUSH2 0x282 JUMPI PUSH2 0x282 PUSH2 0x1C8F JUMP JUMPDEST SWAP1 PUSH1 0x0 MSTORE PUSH1 0x20 PUSH1 0x0 KECCAK256 SWAP1 PUSH1 0xC MUL ADD PUSH1 0x40 MLOAD DUP1 PUSH2 0x180 ADD PUSH1 0x40 MSTORE SWAP1 DUP2 PUSH1 0x0 DUP3 ADD SLOAD DUP2 MSTORE PUSH1 0x20 ADD PUSH1 0x1 DUP3 ADD PUSH1 0x0 SWAP1 SLOAD SWAP1 PUSH2 0x100 EXP SWAP1 DIV PUSH1 0x1 PUSH1 0x1 PUSH1 0xA0 SHL SUB AND PUSH1 0x1 PUSH1 0x1 PUSH1 0xA0 SHL SUB AND PUSH1 0x1 PUSH1 0x1 PUSH1 0xA0 SHL SUB AND DUP2 MSTORE PUSH1 0x20 ADD PUSH1 0x2 DUP3 ADD DUP1 SLOAD PUSH2 0x2E5 SWAP1 PUSH2 0x1CA5 JUMP JUMPDEST DUP1 PUSH1 0x1F ADD PUSH1 0x20 DUP1 SWAP2 DIV MUL PUSH1 0x20 ADD PUSH1 0x40 MLOAD SWAP1 DUP2 ADD PUSH1 0x40 MSTORE DUP1 SWAP3 SWAP2 SWAP1 DUP2 DUP2 MSTORE PUSH1 0x20 ADD DUP3 DUP1 SLOAD PUSH2 0x311 SWAP1 PUSH2 0x1CA5 JUMP JUMPDEST DUP1 ISZERO PUSH2 0x35E JUMPI DUP1 PUSH1 0x1F LT PUSH2 0x333 JUMPI PUSH2 0x100 DUP1 DUP4 SLOAD DIV MUL DUP4 MSTORE SWAP2 PUSH1 0x20 ADD SWAP2 PUSH2 0x35E JUMP JUMPDEST DUP3 ADD SWAP2 SWAP1 PUSH1 0x0 MSTORE PUSH1 0x20 PUSH1 0x0 KECCAK256 SWAP1 JUMPDEST DUP2 SLOAD DUP2 MSTORE SWAP1 PUSH1 0x1 ADD SWAP1 PUSH1 0x20 ADD DUP1 DUP4 GT PUSH2 0x341 JUMPI DUP3 SWAP1 SUB PUSH1 0x1F AND DUP3 ADD SWAP2 JUMPDEST POP POP POP POP POP DUP2 MSTORE PUSH1 0x20 ADD PUSH1 0x3 DUP3 ADD DUP1 SLOAD PUSH2 0x377 SWAP1 PUSH2 0x1CA5 JUMP JUMPDEST DUP1 PUSH1 0x1F ADD PUSH1 0x20 DUP1 SWAP2 DIV MUL PUSH1 0x20 ADD PUSH1 0x40 MLOAD SWAP1 DUP2 ADD PUSH1 0x40 MSTORE DUP1 SWAP3 SWAP2 SWAP1 DUP2 DUP2 MSTORE PUSH1 0x20 ADD DUP3 DUP1 SLOAD PUSH2 0x3A3 SWAP1 PUSH2 0x1CA5 JUMP JUMPDEST DUP1 ISZERO PUSH2 0x3F0 JUMPI DUP1 PUSH1 0x1F LT PUSH2 0x3C5 JUMPI PUSH2 0x100 DUP1 DUP4 SLOAD DIV MUL DUP4 MSTORE SWAP2 PUSH1 0x20 ADD SWAP2 PUSH2 0x3F0 JUMP JUMPDEST DUP3 ADD SWAP2 SWAP1 PUSH1 0x0 MSTORE PUSH1 0x20 PUSH1 0x0 KECCAK256 SWAP1 JUMPDEST DUP2 SLOAD DUP2 MSTORE SWAP1 PUSH1 0x1 ADD SWAP1 PUSH1 0x20 ADD DUP1 DUP4 GT PUSH2 0x3D3 JUMPI DUP3 SWAP1 SUB PUSH1 0x1F AND DUP3 ADD SWAP2 JUMPDEST POP POP POP POP POP DUP2 MSTORE PUSH1 0x20 ADD PUSH1 0x4 DUP3 ADD DUP1 SLOAD PUSH2 0x409 SWAP1 PUSH2 0x1CA5 JUMP JUMPDEST DUP1 PUSH1 0x1F ADD PUSH1 0x20 DUP1 SWAP2 DIV MUL PUSH1 0x20 ADD PUSH1 0x40 MLOAD SWAP1 DUP2 ADD PUSH1 0x40 MSTORE DUP1 SWAP3 SWAP2 SWAP1 DUP2 DUP2 MSTORE PUSH1 0x20 ADD DUP3 DUP1 SLOAD PUSH2 0x435 SWAP1 PUSH2 0x1CA5 JUMP JUMPDEST DUP1 ISZERO PUSH2 0x482 JUMPI DUP1 PUSH1 0x1F LT PUSH2 0x457 JUMPI PUSH2 0x100 DUP1 DUP4 SLOAD DIV MUL DUP4 MSTORE SWAP2 PUSH1 0x20 ADD SWAP2 PUSH2 0x482 JUMP JUMPDEST DUP3 ADD SWAP2 SWAP1 PUSH1 0x0 MSTORE PUSH1 0x20 PUSH1 0x0 KECCAK256 SWAP1 JUMPDEST DUP2 SLOAD DUP2 MSTORE SWAP1 PUSH1 0x1 ADD SWAP1 PUSH1 0x20 ADD DUP1 DUP4 GT PUSH2 0x465 JUMPI DUP3 SWAP1 SUB PUSH1 0x1F AND DUP3 ADD SWAP2 JUMPDEST POP POP POP SWAP2 DUP4 MSTORE POP POP PUSH1 0x5 DUP3 ADD SLOAD PUSH1 0x20 DUP3 ADD MSTORE PUSH1 0x6 DUP3 ADD SLOAD PUSH1 0x40 DUP3 ADD MSTORE PUSH1 0x7 DUP3 ADD SLOAD PUSH1 0x1 PUSH1 0x1 PUSH1 0xA0 SHL SUB SWAP1 DUP2 AND PUSH1 0x60 DUP4 ADD MSTORE PUSH1 0x8 DUP4 ADD SLOAD AND PUSH1 0x80 DUP3 ADD MSTORE PUSH1 0x9 DUP3 ADD SLOAD PUSH1 0xA0 DUP3 ADD MSTORE PUSH1 0xA DUP3 ADD SLOAD PUSH1 0xC0 DUP3 ADD MSTORE PUSH1 0xB SWAP1 SWAP2 ADD SLOAD PUSH1 0xFF AND PUSH1 0xE0 SWAP1 SWAP2 ADD MSTORE SWAP3 SWAP2 POP POP JUMP JUMPDEST PUSH1 0x0 DUP2 GT PUSH2 0x52C JUMPI PUSH1 0x40 MLOAD PUSH3 0x461BCD PUSH1 0xE5 SHL DUP2 MSTORE PUSH1 0x20 PUSH1 0x4 DUP3 ADD MSTORE PUSH1 0x12 PUSH1 0x24 DUP3 ADD MSTORE PUSH18 0x427564676574206D757374206265203E203 PUSH1 0x74 SHL PUSH1 0x44 DUP3 ADD MSTORE PUSH1 0x64 ADD PUSH2 0x266 JUMP JUMPDEST TIMESTAMP DUP3 GT PUSH2 0x57B JUMPI PUSH1 0x40 MLOAD PUSH3 0x461BCD PUSH1 0xE5 SHL DUP2 MSTORE PUSH1 0x20 PUSH1 0x4 DUP3 ADD MSTORE PUSH1 0x1E PUSH1 0x24 DUP3 ADD MSTORE PUSH32 0x446561646C696E65206D75737420626520696E20746865206675747572650000 PUSH1 0x44 DUP3 ADD MSTORE PUSH1 0x64 ADD PUSH2 0x266 JUMP JUMPDEST PUSH2 0x5B0 PUSH1 0x1 PUSH1 0x1 PUSH1 0xA0 SHL SUB PUSH32 0x0 AND CALLER ADDRESS DUP5 PUSH2 0x1663 JUMP JUMPDEST PUSH1 0x0 PUSH1 0x1 DUP1 SLOAD SWAP1 POP SWAP1 POP PUSH1 0x1 PUSH1 0x40 MLOAD DUP1 PUSH2 0x180 ADD PUSH1 0x40 MSTORE DUP1 DUP4 DUP2 MSTORE PUSH1 0x20 ADD DUP13 PUSH1 0x1 PUSH1 0x1 PUSH1 0xA0 SHL SUB AND DUP2 MSTORE PUSH1 0x20 ADD DUP12 DUP12 DUP1 DUP1 PUSH1 0x1F ADD PUSH1 0x20 DUP1 SWAP2 DIV MUL PUSH1 0x20 ADD PUSH1 0x40 MLOAD SWAP1 DUP2 ADD PUSH1 0x40 MSTORE DUP1 SWAP4 SWAP3 SWAP2 SWAP1 DUP2 DUP2 MSTORE PUSH1 0x20 ADD DUP4 DUP4 DUP1 DUP3 DUP5 CALLDATACOPY PUSH1 0x0 SWAP3 ADD SWAP2 SWAP1 SWAP2 MSTORE POP POP POP SWAP1 DUP3 MSTORE POP PUSH1 0x40 DUP1 MLOAD PUSH1 0x20 PUSH1 0x1F DUP13 ADD DUP2 SWAP1 DIV DUP2 MUL DUP3 ADD DUP2 ADD SWAP1 SWAP3 MSTORE DUP11 DUP2 MSTORE SWAP2 DUP2 ADD SWAP2 SWAP1 DUP12 SWAP1 DUP12 SWAP1 DUP2 SWAP1 DUP5 ADD DUP4 DUP3 DUP1 DUP3 DUP5 CALLDATACOPY PUSH1 0x0 SWAP3 ADD SWAP2 SWAP1 SWAP2 MSTORE POP POP POP SWAP1 DUP3 MSTORE POP PUSH1 0x40 DUP1 MLOAD PUSH1 0x20 PUSH1 0x1F DUP11 ADD DUP2 SWAP1 DIV DUP2 MUL DUP3 ADD DUP2 ADD SWAP1 SWAP3 MSTORE DUP9 DUP2 MSTORE SWAP2 DUP2 ADD SWAP2 SWAP1 DUP10 SWAP1 DUP10 SWAP1 DUP2 SWAP1 DUP5 ADD DUP4 DUP3 DUP1 DUP3 DUP5 CALLDATACOPY PUSH1 0x0 SWAP3 ADD DUP3 SWAP1 MSTORE POP SWAP4 DUP6 MSTORE POP POP POP PUSH1 0x20 DUP1 DUP4 ADD DUP9 SWAP1 MSTORE PUSH1 0x40 DUP1 DUP5 ADD DUP9 SWAP1 MSTORE CALLER PUSH1 0x60 DUP6 ADD MSTORE PUSH1 0x80 DUP5 ADD DUP4 SWAP1 MSTORE PUSH1 0xA0 DUP5 ADD DUP4 SWAP1 MSTORE TIMESTAMP PUSH1 0xC0 DUP6 ADD MSTORE PUSH1 0xE0 SWAP1 SWAP4 ADD DUP3 SWAP1 MSTORE DUP5 SLOAD PUSH1 0x1 DUP1 DUP3 ADD DUP8 SSTORE SWAP6 DUP4 MSTORE SWAP2 DUP2 SWAP1 KECCAK256 DUP5 MLOAD PUSH1 0xC SWAP1 SWAP4 MUL ADD SWAP2 DUP3 SSTORE DUP4 ADD MLOAD SWAP4 DUP2 ADD DUP1 SLOAD PUSH1 0x1 PUSH1 0x1 PUSH1 0xA0 SHL SUB NOT AND PUSH1 0x1 PUSH1 0x1 PUSH1 0xA0 SHL SUB SWAP1 SWAP6 AND SWAP5 SWAP1 SWAP5 OR SWAP1 SWAP4 SSTORE DUP2 ADD MLOAD SWAP1 SWAP2 SWAP1 PUSH1 0x2 DUP3 ADD SWAP1 PUSH2 0x711 SWAP1 DUP3 PUSH2 0x1D45 JUMP JUMPDEST POP PUSH1 0x60 DUP3 ADD MLOAD PUSH1 0x3 DUP3 ADD SWAP1 PUSH2 0x726 SWAP1 DUP3 PUSH2 0x1D45 JUMP JUMPDEST POP PUSH1 0x80 DUP3 ADD MLOAD PUSH1 0x4 DUP3 ADD SWAP1 PUSH2 0x73B SWAP1 DUP3 PUSH2 0x1D45 JUMP JUMPDEST POP PUSH1 0xA0 DUP3 ADD MLOAD PUSH1 0x5 DUP3 ADD SSTORE PUSH1 0xC0 DUP3 ADD MLOAD PUSH1 0x6 DUP3 ADD SSTORE PUSH1 0xE0 DUP3 ADD MLOAD PUSH1 0x7 DUP3 ADD DUP1 SLOAD PUSH1 0x1 PUSH1 0x1 PUSH1 0xA0 SHL SUB SWAP3 DUP4 AND PUSH1 0x1 PUSH1 0x1 PUSH1 0xA0 SHL SUB NOT SWAP2 DUP3 AND OR SWAP1 SWAP2 SSTORE PUSH2 0x100 DUP5 ADD MLOAD PUSH1 0x8 DUP5 ADD DUP1 SLOAD SWAP2 SWAP1 SWAP4 AND SWAP2 AND OR SWAP1 SSTORE PUSH2 0x120 DUP3 ADD MLOAD PUSH1 0x9 DUP3 ADD SSTORE PUSH2 0x140 DUP3 ADD MLOAD PUSH1 0xA DUP3 ADD SSTORE PUSH2 0x160 SWAP1 SWAP2 ADD MLOAD PUSH1 0xB SWAP1 SWAP2 ADD DUP1 SLOAD PUSH1 0xFF SWAP1 SWAP3 AND PUSH1 0xFF NOT SWAP1 SWAP3 AND SWAP2 SWAP1 SWAP2 OR SWAP1 SSTORE PUSH1 0x40 MLOAD CALLER SWAP1 DUP3 SWAP1 PUSH32 0x9B42930AD4E290D8DEE06239F9FEA97913AF1E2A02B7CA78CC074A2672459677 SWAP1 PUSH2 0x7FE SWAP1 DUP15 SWAP1 DUP15 SWAP1 DUP15 SWAP1 DUP10 SWAP1 DUP12 SWAP1 TIMESTAMP SWAP1 PUSH2 0x1E05 JUMP JUMPDEST PUSH1 0x40 MLOAD DUP1 SWAP2 SUB SWAP1 LOG3 POP POP POP POP POP POP POP POP POP POP JUMP JUMPDEST PUSH2 0x81A PUSH2 0x169F JUMP JUMPDEST PUSH2 0x824 PUSH1 0x0 PUSH2 0x16CC JUMP JUMPDEST JUMP JUMPDEST PUSH1 0x60 PUSH1 0x1 DUP1 SLOAD DUP1 PUSH1 0x20 MUL PUSH1 0x20 ADD PUSH1 0x40 MLOAD SWAP1 DUP2 ADD PUSH1 0x40 MSTORE DUP1 SWAP3 SWAP2 SWAP1 DUP2 DUP2 MSTORE PUSH1 0x20 ADD PUSH1 0x0 SWAP1 JUMPDEST DUP3 DUP3 LT ISZERO PUSH2 0xAAE JUMPI PUSH1 0x0 DUP5 DUP2 MSTORE PUSH1 0x20 SWAP1 DUP2 SWAP1 KECCAK256 PUSH1 0x40 DUP1 MLOAD PUSH2 0x180 DUP2 ADD DUP3 MSTORE PUSH1 0xC DUP7 MUL SWAP1 SWAP3 ADD DUP1 SLOAD DUP4 MSTORE PUSH1 0x1 DUP2 ADD SLOAD PUSH1 0x1 PUSH1 0x1 PUSH1 0xA0 SHL SUB AND SWAP4 DUP4 ADD SWAP4 SWAP1 SWAP4 MSTORE PUSH1 0x2 DUP4 ADD DUP1 SLOAD SWAP3 SWAP4 SWAP3 SWAP2 DUP5 ADD SWAP2 PUSH2 0x89E SWAP1 PUSH2 0x1CA5 JUMP JUMPDEST DUP1 PUSH1 0x1F ADD PUSH1 0x20 DUP1 SWAP2 DIV MUL PUSH1 0x20 ADD PUSH1 0x40 MLOAD SWAP1 DUP2 ADD PUSH1 0x40 MSTORE DUP1 SWAP3 SWAP2 SWAP1 DUP2 DUP2 MSTORE PUSH1 0x20 ADD DUP3 DUP1 SLOAD PUSH2 0x8CA SWAP1 PUSH2 0x1CA5 JUMP JUMPDEST DUP1 ISZERO PUSH2 0x917 JUMPI DUP1 PUSH1 0x1F LT PUSH2 0x8EC JUMPI PUSH2 0x100 DUP1 DUP4 SLOAD DIV MUL DUP4 MSTORE SWAP2 PUSH1 0x20 ADD SWAP2 PUSH2 0x917 JUMP JUMPDEST DUP3 ADD SWAP2 SWAP1 PUSH1 0x0 MSTORE PUSH1 0x20 PUSH1 0x0 KECCAK256 SWAP1 JUMPDEST DUP2 SLOAD DUP2 MSTORE SWAP1 PUSH1 0x1 ADD SWAP1 PUSH1 0x20 ADD DUP1 DUP4 GT PUSH2 0x8FA JUMPI DUP3 SWAP1 SUB PUSH1 0x1F AND DUP3 ADD SWAP2 JUMPDEST POP POP POP POP POP DUP2 MSTORE PUSH1 0x20 ADD PUSH1 0x3 DUP3 ADD DUP1 SLOAD PUSH2 0x930 SWAP1 PUSH2 0x1CA5 JUMP JUMPDEST DUP1 PUSH1 0x1F ADD PUSH1 0x20 DUP1 SWAP2 DIV MUL PUSH1 0x20 ADD PUSH1 0x40 MLOAD SWAP1 DUP2 ADD PUSH1 0x40 MSTORE DUP1 SWAP3 SWAP2 SWAP1 DUP2 DUP2 MSTORE PUSH1 0x20 ADD DUP3 DUP1 SLOAD PUSH2 0x95C SWAP1 PUSH2 0x1CA5 JUMP JUMPDEST DUP1 ISZERO PUSH2 0x9A9 JUMPI DUP1 PUSH1 0x1F LT PUSH2 0x97E JUMPI PUSH2 0x100 DUP1 DUP4 SLOAD DIV MUL DUP4 MSTORE SWAP2 PUSH1 0x20 ADD SWAP2 PUSH2 0x9A9 JUMP JUMPDEST DUP3 ADD SWAP2 SWAP1 PUSH1 0x0 MSTORE PUSH1 0x20 PUSH1 0x0 KECCAK256 SWAP1 JUMPDEST DUP2 SLOAD DUP2 MSTORE SWAP1 PUSH1 0x1 ADD SWAP1 PUSH1 0x20 ADD DUP1 DUP4 GT PUSH2 0x98C JUMPI DUP3 SWAP1 SUB PUSH1 0x1F AND DUP3 ADD SWAP2 JUMPDEST POP POP POP POP POP DUP2 MSTORE PUSH1 0x20 ADD PUSH1 0x4 DUP3 ADD DUP1 SLOAD PUSH2 0x9C2 SWAP1 PUSH2 0x1CA5 JUMP JUMPDEST DUP1 PUSH1 0x1F ADD PUSH1 0x20 DUP1 SWAP2 DIV MUL PUSH1 0x20 ADD PUSH1 0x40 MLOAD SWAP1 DUP2 ADD PUSH1 0x40 MSTORE DUP1 SWAP3 SWAP2 SWAP1 DUP2 DUP2 MSTORE PUSH1 0x20 ADD DUP3 DUP1 SLOAD PUSH2 0x9EE SWAP1 PUSH2 0x1CA5 JUMP JUMPDEST DUP1 ISZERO PUSH2 0xA3B JUMPI DUP1 PUSH1 0x1F LT PUSH2 0xA10 JUMPI PUSH2 0x100 DUP1 DUP4 SLOAD DIV MUL DUP4 MSTORE SWAP2 PUSH1 0x20 ADD SWAP2 PUSH2 0xA3B JUMP JUMPDEST DUP3 ADD SWAP2 SWAP1 PUSH1 0x0 MSTORE PUSH1 0x20 PUSH1 0x0 KECCAK256 SWAP1 JUMPDEST DUP2 SLOAD DUP2 MSTORE SWAP1 PUSH1 0x1 ADD SWAP1 PUSH1 0x20 ADD DUP1 DUP4 GT PUSH2 0xA1E JUMPI DUP3 SWAP1 SUB PUSH1 0x1F AND DUP3 ADD SWAP2 JUMPDEST POP POP POP SWAP2 DUP4 MSTORE POP POP PUSH1 0x5 DUP3 ADD SLOAD PUSH1 0x20 DUP1 DUP4 ADD SWAP2 SWAP1 SWAP2 MSTORE PUSH1 0x6 DUP4 ADD SLOAD PUSH1 0x40 DUP4 ADD MSTORE PUSH1 0x7 DUP4 ADD SLOAD PUSH1 0x1 PUSH1 0x1 PUSH1 0xA0 SHL SUB SWAP1 DUP2 AND PUSH1 0x60 DUP5 ADD MSTORE PUSH1 0x8 DUP5 ADD SLOAD AND PUSH1 0x80 DUP4 ADD MSTORE PUSH1 0x9 DUP4 ADD SLOAD PUSH1 0xA0 DUP4 ADD MSTORE PUSH1 0xA DUP4 ADD SLOAD PUSH1 0xC0 DUP4 ADD MSTORE PUSH1 0xB SWAP1 SWAP3 ADD SLOAD PUSH1 0xFF AND PUSH1 0xE0 SWAP1 SWAP2 ADD MSTORE SWAP1 DUP3 MSTORE PUSH1 0x1 SWAP3 SWAP1 SWAP3 ADD SWAP2 ADD PUSH2 0x84A JUMP JUMPDEST POP POP POP POP SWAP1 POP SWAP1 JUMP JUMPDEST PUSH1 0x1 DUP2 DUP2 SLOAD DUP2 LT PUSH2 0xAC7 JUMPI PUSH1 0x0 DUP1 REVERT JUMPDEST PUSH1 0x0 SWAP2 DUP3 MSTORE PUSH1 0x20 SWAP1 SWAP2 KECCAK256 PUSH1 0xC SWAP1 SWAP2 MUL ADD DUP1 SLOAD PUSH1 0x1 DUP3 ADD SLOAD PUSH1 0x2 DUP4 ADD DUP1 SLOAD SWAP3 SWAP5 POP PUSH1 0x1 PUSH1 0x1 PUSH1 0xA0 SHL SUB SWAP1 SWAP2 AND SWAP3 SWAP2 PUSH2 0xAFD SWAP1 PUSH2 0x1CA5 JUMP JUMPDEST DUP1 PUSH1 0x1F ADD PUSH1 0x20 DUP1 SWAP2 DIV MUL PUSH1 0x20 ADD PUSH1 0x40 MLOAD SWAP1 DUP2 ADD PUSH1 0x40 MSTORE DUP1 SWAP3 SWAP2 SWAP1 DUP2 DUP2 MSTORE PUSH1 0x20 ADD DUP3 DUP1 SLOAD PUSH2 0xB29 SWAP1 PUSH2 0x1CA5 JUMP JUMPDEST DUP1 ISZERO PUSH2 0xB76 JUMPI DUP1 PUSH1 0x1F LT PUSH2 0xB4B JUMPI PUSH2 0x100 DUP1 DUP4 SLOAD DIV MUL DUP4 MSTORE SWAP2 PUSH1 0x20 ADD SWAP2 PUSH2 0xB76 JUMP JUMPDEST DUP3 ADD SWAP2 SWAP1 PUSH1 0x0 MSTORE PUSH1 0x20 PUSH1 0x0 KECCAK256 SWAP1 JUMPDEST DUP2 SLOAD DUP2 MSTORE SWAP1 PUSH1 0x1 ADD SWAP1 PUSH1 0x20 ADD DUP1 DUP4 GT PUSH2 0xB59 JUMPI DUP3 SWAP1 SUB PUSH1 0x1F AND DUP3 ADD SWAP2 JUMPDEST POP POP POP POP POP SWAP1 DUP1 PUSH1 0x3 ADD DUP1 SLOAD PUSH2 0xB8B SWAP1 PUSH2 0x1CA5 JUMP JUMPDEST DUP1 PUSH1 0x1F ADD PUSH1 0x20 DUP1 SWAP2 DIV MUL PUSH1 0x20 ADD PUSH1 0x40 MLOAD SWAP1 DUP2 ADD PUSH1 0x40 MSTORE DUP1 SWAP3 SWAP2 SWAP1 DUP2 DUP2 MSTORE PUSH1 0x20 ADD DUP3 DUP1 SLOAD PUSH2 0xBB7 SWAP1 PUSH2 0x1CA5 JUMP JUMPDEST DUP1 ISZERO PUSH2 0xC04 JUMPI DUP1 PUSH1 0x1F LT PUSH2 0xBD9 JUMPI PUSH2 0x100 DUP1 DUP4 SLOAD DIV MUL DUP4 MSTORE SWAP2 PUSH1 0x20 ADD SWAP2 PUSH2 0xC04 JUMP JUMPDEST DUP3 ADD SWAP2 SWAP1 PUSH1 0x0 MSTORE PUSH1 0x20 PUSH1 0x0 KECCAK256 SWAP1 JUMPDEST DUP2 SLOAD DUP2 MSTORE SWAP1 PUSH1 0x1 ADD SWAP1 PUSH1 0x20 ADD DUP1 DUP4 GT PUSH2 0xBE7 JUMPI DUP3 SWAP1 SUB PUSH1 0x1F AND DUP3 ADD SWAP2 JUMPDEST POP POP POP POP POP SWAP1 DUP1 PUSH1 0x4 ADD DUP1 SLOAD PUSH2 0xC19 SWAP1 PUSH2 0x1CA5 JUMP JUMPDEST DUP1 PUSH1 0x1F ADD PUSH1 0x20 DUP1 SWAP2 DIV MUL PUSH1 0x20 ADD PUSH1 0x40 MLOAD SWAP1 DUP2 ADD PUSH1 0x40 MSTORE DUP1 SWAP3 SWAP2 SWAP1 DUP2 DUP2 MSTORE PUSH1 0x20 ADD DUP3 DUP1 SLOAD PUSH2 0xC45 SWAP1 PUSH2 0x1CA5 JUMP JUMPDEST DUP1 ISZERO PUSH2 0xC92 JUMPI DUP1 PUSH1 0x1F LT PUSH2 0xC67 JUMPI PUSH2 0x100 DUP1 DUP4 SLOAD DIV MUL DUP4 MSTORE SWAP2 PUSH1 0x20 ADD SWAP2 PUSH2 0xC92 JUMP JUMPDEST DUP3 ADD SWAP2 SWAP1 PUSH1 0x0 MSTORE PUSH1 0x20 PUSH1 0x0 KECCAK256 SWAP1 JUMPDEST DUP2 SLOAD DUP2 MSTORE SWAP1 PUSH1 0x1 ADD SWAP1 PUSH1 0x20 ADD DUP1 DUP4 GT PUSH2 0xC75 JUMPI DUP3 SWAP1 SUB PUSH1 0x1F AND DUP3 ADD SWAP2 JUMPDEST POP POP POP PUSH1 0x5 DUP5 ADD SLOAD PUSH1 0x6 DUP6 ADD SLOAD PUSH1 0x7 DUP7 ADD SLOAD PUSH1 0x8 DUP8 ADD SLOAD PUSH1 0x9 DUP9 ADD SLOAD PUSH1 0xA DUP10 ADD SLOAD PUSH1 0xB SWAP1 SWAP10 ADD SLOAD SWAP8 SWAP9 SWAP5 SWAP8 SWAP4 SWAP7 POP PUSH1 0x1 PUSH1 0x1 PUSH1 0xA0 SHL SUB SWAP3 DUP4 AND SWAP6 POP SWAP2 AND SWAP3 SWAP1 SWAP2 PUSH1 0xFF AND DUP13 JUMP JUMPDEST PUSH1 0x1 SLOAD DUP2 LT PUSH2 0xCF9 JUMPI PUSH1 0x40 MLOAD PUSH3 0x461BCD PUSH1 0xE5 SHL DUP2 MSTORE PUSH1 0x4 ADD PUSH2 0x266 SWAP1 PUSH2 0x1C69 JUMP JUMPDEST PUSH1 0x0 PUSH1 0x1 DUP3 DUP2 SLOAD DUP2 LT PUSH2 0xD0E JUMPI PUSH2 0xD0E PUSH2 0x1C8F JUMP JUMPDEST PUSH1 0x0 SWAP2 DUP3 MSTORE PUSH1 0x20 DUP3 KECCAK256 PUSH1 0xC SWAP1 SWAP2 MUL ADD SWAP2 POP PUSH1 0xB DUP3 ADD SLOAD PUSH1 0xFF SWAP1 DUP2 AND SWAP2 AND EQ PUSH2 0xD63 JUMPI PUSH1 0x40 MLOAD PUSH3 0x461BCD PUSH1 0xE5 SHL DUP2 MSTORE PUSH1 0x20 PUSH1 0x4 DUP3 ADD MSTORE PUSH1 0x8 PUSH1 0x24 DUP3 ADD MSTORE PUSH8 0x2737BA1037B832B7 PUSH1 0xC1 SHL PUSH1 0x44 DUP3 ADD MSTORE PUSH1 0x64 ADD PUSH2 0x266 JUMP JUMPDEST TIMESTAMP DUP2 PUSH1 0x5 ADD SLOAD GT PUSH2 0xDA0 JUMPI PUSH1 0x40 MLOAD PUSH3 0x461BCD PUSH1 0xE5 SHL DUP2 MSTORE PUSH1 0x20 PUSH1 0x4 DUP3 ADD MSTORE PUSH1 0x7 PUSH1 0x24 DUP3 ADD MSTORE PUSH7 0x115E1C1A5C9959 PUSH1 0xCA SHL PUSH1 0x44 DUP3 ADD MSTORE PUSH1 0x64 ADD PUSH2 0x266 JUMP JUMPDEST PUSH1 0x7 DUP2 ADD SLOAD CALLER PUSH1 0x1 PUSH1 0x1 PUSH1 0xA0 SHL SUB SWAP1 SWAP2 AND SUB PUSH2 0xDF6 JUMPI PUSH1 0x40 MLOAD PUSH3 0x461BCD PUSH1 0xE5 SHL DUP2 MSTORE PUSH1 0x20 PUSH1 0x4 DUP3 ADD MSTORE PUSH1 0x15 PUSH1 0x24 DUP3 ADD MSTORE PUSH21 0x43616E6E6F7420636C61696D206F776E207461736B PUSH1 0x58 SHL PUSH1 0x44 DUP3 ADD MSTORE PUSH1 0x64 ADD PUSH2 0x266 JUMP JUMPDEST PUSH1 0x8 DUP2 ADD DUP1 SLOAD PUSH1 0x1 PUSH1 0x1 PUSH1 0xA0 SHL SUB NOT AND CALLER SWAP1 DUP2 OR SWAP1 SWAP2 SSTORE PUSH1 0xB DUP3 ADD DUP1 SLOAD PUSH1 0xFF NOT AND PUSH1 0x1 OR SWAP1 SSTORE PUSH1 0x40 MLOAD TIMESTAMP DUP2 MSTORE DUP4 SWAP1 PUSH32 0x6D8A5BCA396094EFF00461DBCB1D176CB6722FD703396E3740F4ACFCD740FFC4 SWAP1 PUSH1 0x20 ADD JUMPDEST PUSH1 0x40 MLOAD DUP1 SWAP2 SUB SWAP1 LOG3 POP POP JUMP JUMPDEST PUSH1 0x1 SLOAD DUP2 LT PUSH2 0xE77 JUMPI PUSH1 0x40 MLOAD PUSH3 0x461BCD PUSH1 0xE5 SHL DUP2 MSTORE PUSH1 0x4 ADD PUSH2 0x266 SWAP1 PUSH2 0x1C69 JUMP JUMPDEST PUSH1 0x0 PUSH1 0x1 DUP3 DUP2 SLOAD DUP2 LT PUSH2 0xE8C JUMPI PUSH2 0xE8C PUSH2 0x1C8F JUMP JUMPDEST PUSH1 0x0 SWAP2 DUP3 MSTORE PUSH1 0x20 SWAP1 SWAP2 KECCAK256 PUSH1 0xB PUSH1 0xC SWAP1 SWAP3 MUL ADD SWAP1 DUP2 ADD SLOAD SWAP1 SWAP2 POP PUSH1 0xFF AND PUSH1 0x1 EQ PUSH2 0xEC7 JUMPI PUSH1 0x40 MLOAD PUSH3 0x461BCD PUSH1 0xE5 SHL DUP2 MSTORE PUSH1 0x4 ADD PUSH2 0x266 SWAP1 PUSH2 0x1E5D JUMP JUMPDEST PUSH1 0x7 DUP2 ADD SLOAD PUSH1 0x1 PUSH1 0x1 PUSH1 0xA0 SHL SUB AND CALLER EQ PUSH2 0xF23 JUMPI PUSH1 0x40 MLOAD PUSH3 0x461BCD PUSH1 0xE5 SHL DUP2 MSTORE PUSH1 0x20 PUSH1 0x4 DUP3 ADD MSTORE PUSH1 0x17 PUSH1 0x24 DUP3 ADD MSTORE PUSH32 0x4F6E6C7920706F737465722063616E2064697370757465000000000000000000 PUSH1 0x44 DUP3 ADD MSTORE PUSH1 0x64 ADD PUSH2 0x266 JUMP JUMPDEST PUSH1 0xB DUP2 ADD DUP1 SLOAD PUSH1 0xFF NOT AND PUSH1 0x4 OR SWAP1 SSTORE PUSH1 0x40 MLOAD TIMESTAMP DUP2 MSTORE CALLER SWAP1 DUP4 SWAP1 PUSH32 0x9CAB8B174C1C853578541B419DC79E025A449C66D71E9DD05327FF94007B58EC SWAP1 PUSH1 0x20 ADD PUSH2 0xE4A JUMP JUMPDEST PUSH1 0x1 SLOAD DUP2 LT PUSH2 0xF87 JUMPI PUSH1 0x40 MLOAD PUSH3 0x461BCD PUSH1 0xE5 SHL DUP2 MSTORE PUSH1 0x4 ADD PUSH2 0x266 SWAP1 PUSH2 0x1C69 JUMP JUMPDEST PUSH1 0x0 PUSH1 0x1 DUP3 DUP2 SLOAD DUP2 LT PUSH2 0xF9C JUMPI PUSH2 0xF9C PUSH2 0x1C8F JUMP JUMPDEST PUSH1 0x0 SWAP2 DUP3 MSTORE PUSH1 0x20 SWAP1 SWAP2 KECCAK256 PUSH1 0xB PUSH1 0xC SWAP1 SWAP3 MUL ADD SWAP1 DUP2 ADD SLOAD SWAP1 SWAP2 POP PUSH1 0xFF AND PUSH1 0x1 EQ PUSH2 0xFD7 JUMPI PUSH1 0x40 MLOAD PUSH3 0x461BCD PUSH1 0xE5 SHL DUP2 MSTORE PUSH1 0x4 ADD PUSH2 0x266 SWAP1 PUSH2 0x1E5D JUMP JUMPDEST PUSH1 0x7 DUP2 ADD SLOAD PUSH1 0x1 PUSH1 0x1 PUSH1 0xA0 SHL SUB AND CALLER EQ PUSH2 0x1033 JUMPI PUSH1 0x40 MLOAD PUSH3 0x461BCD PUSH1 0xE5 SHL DUP2 MSTORE PUSH1 0x20 PUSH1 0x4 DUP3 ADD MSTORE PUSH1 0x17 PUSH1 0x24 DUP3 ADD MSTORE PUSH32 0x4F6E6C7920706F737465722063616E20617070726F7665000000000000000000 PUSH1 0x44 DUP3 ADD MSTORE PUSH1 0x64 ADD PUSH2 0x266 JUMP JUMPDEST PUSH1 0x9 DUP2 ADD SLOAD PUSH2 0x107C JUMPI PUSH1 0x40 MLOAD PUSH3 0x461BCD PUSH1 0xE5 SHL DUP2 MSTORE PUSH1 0x20 PUSH1 0x4 DUP3 ADD MSTORE PUSH1 0x15 PUSH1 0x24 DUP3 ADD MSTORE PUSH21 0x139BC819195B1A5D995C9E481CDD589B5A5D1D1959 PUSH1 0x5A SHL PUSH1 0x44 DUP3 ADD MSTORE PUSH1 0x64 ADD PUSH2 0x266 JUMP JUMPDEST PUSH1 0xB DUP2 ADD DUP1 SLOAD PUSH1 0xFF NOT AND PUSH1 0x2 OR SWAP1 SSTORE PUSH1 0x8 DUP2 ADD SLOAD PUSH1 0x6 DUP3 ADD SLOAD PUSH2 0x10CE SWAP2 PUSH32 0x0 PUSH1 0x1 PUSH1 0x1 PUSH1 0xA0 SHL SUB SWAP1 DUP2 AND SWAP3 SWAP2 AND SWAP1 PUSH2 0x171C JUMP JUMPDEST PUSH1 0x8 DUP2 ADD SLOAD PUSH1 0x6 DUP3 ADD SLOAD PUSH1 0x40 DUP1 MLOAD SWAP2 DUP3 MSTORE TIMESTAMP PUSH1 0x20 DUP4 ADD MSTORE PUSH1 0x1 PUSH1 0x1 PUSH1 0xA0 SHL SUB SWAP1 SWAP3 AND SWAP2 DUP5 SWAP2 PUSH32 0xAEE1D406DDEE631ACBA8B4CA4C809B6B0DD885440FCFEC1E146BC1D9734612D2 SWAP2 ADD PUSH2 0xE4A JUMP JUMPDEST PUSH1 0x60 PUSH1 0x0 DUP1 JUMPDEST PUSH1 0x1 SLOAD DUP2 LT ISZERO PUSH2 0x11A5 JUMPI PUSH1 0x0 PUSH1 0xFF AND PUSH1 0x1 DUP3 DUP2 SLOAD DUP2 LT PUSH2 0x1143 JUMPI PUSH2 0x1143 PUSH2 0x1C8F JUMP JUMPDEST PUSH1 0x0 SWAP2 DUP3 MSTORE PUSH1 0x20 SWAP1 SWAP2 KECCAK256 PUSH1 0xB PUSH1 0xC SWAP1 SWAP3 MUL ADD ADD SLOAD PUSH1 0xFF AND EQ DUP1 ISZERO PUSH2 0x118A JUMPI POP TIMESTAMP PUSH1 0x1 DUP3 DUP2 SLOAD DUP2 LT PUSH2 0x1176 JUMPI PUSH2 0x1176 PUSH2 0x1C8F JUMP JUMPDEST SWAP1 PUSH1 0x0 MSTORE PUSH1 0x20 PUSH1 0x0 KECCAK256 SWAP1 PUSH1 0xC MUL ADD PUSH1 0x5 ADD SLOAD GT JUMPDEST ISZERO PUSH2 0x119D JUMPI DUP2 PUSH2 0x1199 DUP2 PUSH2 0x1E82 JUMP JUMPDEST SWAP3 POP POP JUMPDEST PUSH1 0x1 ADD PUSH2 0x1121 JUMP JUMPDEST POP PUSH1 0x0 DUP2 PUSH8 0xFFFFFFFFFFFFFFFF DUP2 GT ISZERO PUSH2 0x11C1 JUMPI PUSH2 0x11C1 PUSH2 0x1CDF JUMP JUMPDEST PUSH1 0x40 MLOAD SWAP1 DUP1 DUP3 MSTORE DUP1 PUSH1 0x20 MUL PUSH1 0x20 ADD DUP3 ADD PUSH1 0x40 MSTORE DUP1 ISZERO PUSH2 0x11FA JUMPI DUP2 PUSH1 0x20 ADD JUMPDEST PUSH2 0x11E7 PUSH2 0x182E JUMP JUMPDEST DUP2 MSTORE PUSH1 0x20 ADD SWAP1 PUSH1 0x1 SWAP1 SUB SWAP1 DUP2 PUSH2 0x11DF JUMPI SWAP1 POP JUMPDEST POP SWAP1 POP PUSH1 0x0 DUP1 JUMPDEST PUSH1 0x1 SLOAD DUP2 LT ISZERO PUSH2 0x1512 JUMPI PUSH1 0x0 PUSH1 0xFF AND PUSH1 0x1 DUP3 DUP2 SLOAD DUP2 LT PUSH2 0x1223 JUMPI PUSH2 0x1223 PUSH2 0x1C8F JUMP JUMPDEST PUSH1 0x0 SWAP2 DUP3 MSTORE PUSH1 0x20 SWAP1 SWAP2 KECCAK256 PUSH1 0xB PUSH1 0xC SWAP1 SWAP3 MUL ADD ADD SLOAD PUSH1 0xFF AND EQ DUP1 ISZERO PUSH2 0x126A JUMPI POP TIMESTAMP PUSH1 0x1 DUP3 DUP2 SLOAD DUP2 LT PUSH2 0x1256 JUMPI PUSH2 0x1256 PUSH2 0x1C8F JUMP JUMPDEST SWAP1 PUSH1 0x0 MSTORE PUSH1 0x20 PUSH1 0x0 KECCAK256 SWAP1 PUSH1 0xC MUL ADD PUSH1 0x5 ADD SLOAD GT JUMPDEST ISZERO PUSH2 0x150A JUMPI PUSH1 0x1 DUP2 DUP2 SLOAD DUP2 LT PUSH2 0x1282 JUMPI PUSH2 0x1282 PUSH2 0x1C8F JUMP JUMPDEST SWAP1 PUSH1 0x0 MSTORE PUSH1 0x20 PUSH1 0x0 KECCAK256 SWAP1 PUSH1 0xC MUL ADD PUSH1 0x40 MLOAD DUP1 PUSH2 0x180 ADD PUSH1 0x40 MSTORE SWAP1 DUP2 PUSH1 0x0 DUP3 ADD SLOAD DUP2 MSTORE PUSH1 0x20 ADD PUSH1 0x1 DUP3 ADD PUSH1 0x0 SWAP1 SLOAD SWAP1 PUSH2 0x100 EXP SWAP1 DIV PUSH1 0x1 PUSH1 0x1 PUSH1 0xA0 SHL SUB AND PUSH1 0x1 PUSH1 0x1 PUSH1 0xA0 SHL SUB AND PUSH1 0x1 PUSH1 0x1 PUSH1 0xA0 SHL SUB AND DUP2 MSTORE PUSH1 0x20 ADD PUSH1 0x2 DUP3 ADD DUP1 SLOAD PUSH2 0x12E5 SWAP1 PUSH2 0x1CA5 JUMP JUMPDEST DUP1 PUSH1 0x1F ADD PUSH1 0x20 DUP1 SWAP2 DIV MUL PUSH1 0x20 ADD PUSH1 0x40 MLOAD SWAP1 DUP2 ADD PUSH1 0x40 MSTORE DUP1 SWAP3 SWAP2 SWAP1 DUP2 DUP2 MSTORE PUSH1 0x20 ADD DUP3 DUP1 SLOAD PUSH2 0x1311 SWAP1 PUSH2 0x1CA5 JUMP JUMPDEST DUP1 ISZERO PUSH2 0x135E JUMPI DUP1 PUSH1 0x1F LT PUSH2 0x1333 JUMPI PUSH2 0x100 DUP1 DUP4 SLOAD DIV MUL DUP4 MSTORE SWAP2 PUSH1 0x20 ADD SWAP2 PUSH2 0x135E JUMP JUMPDEST DUP3 ADD SWAP2 SWAP1 PUSH1 0x0 MSTORE PUSH1 0x20 PUSH1 0x0 KECCAK256 SWAP1 JUMPDEST DUP2 SLOAD DUP2 MSTORE SWAP1 PUSH1 0x1 ADD SWAP1 PUSH1 0x20 ADD DUP1 DUP4 GT PUSH2 0x1341 JUMPI DUP3 SWAP1 SUB PUSH1 0x1F AND DUP3 ADD SWAP2 JUMPDEST POP POP POP POP POP DUP2 MSTORE PUSH1 0x20 ADD PUSH1 0x3 DUP3 ADD DUP1 SLOAD PUSH2 0x1377 SWAP1 PUSH2 0x1CA5 JUMP JUMPDEST DUP1 PUSH1 0x1F ADD PUSH1 0x20 DUP1 SWAP2 DIV MUL PUSH1 0x20 ADD PUSH1 0x40 MLOAD SWAP1 DUP2 ADD PUSH1 0x40 MSTORE DUP1 SWAP3 SWAP2 SWAP1 DUP2 DUP2 MSTORE PUSH1 0x20 ADD DUP3 DUP1 SLOAD PUSH2 0x13A3 SWAP1 PUSH2 0x1CA5 JUMP JUMPDEST DUP1 ISZERO PUSH2 0x13F0 JUMPI DUP1 PUSH1 0x1F LT PUSH2 0x13C5 JUMPI PUSH2 0x100 DUP1 DUP4 SLOAD DIV MUL DUP4 MSTORE SWAP2 PUSH1 0x20 ADD SWAP2 PUSH2 0x13F0 JUMP JUMPDEST DUP3 ADD SWAP2 SWAP1 PUSH1 0x0 MSTORE PUSH1 0x20 PUSH1 0x0 KECCAK256 SWAP1 JUMPDEST DUP2 SLOAD DUP2 MSTORE SWAP1 PUSH1 0x1 ADD SWAP1 PUSH1 0x20 ADD DUP1 DUP4 GT PUSH2 0x13D3 JUMPI DUP3 SWAP1 SUB PUSH1 0x1F AND DUP3 ADD SWAP2 JUMPDEST POP POP POP POP POP DUP2 MSTORE PUSH1 0x20 ADD PUSH1 0x4 DUP3 ADD DUP1 SLOAD PUSH2 0x1409 SWAP1 PUSH2 0x1CA5 JUMP JUMPDEST DUP1 PUSH1 0x1F ADD PUSH1 0x20 DUP1 SWAP2 DIV MUL PUSH1 0x20 ADD PUSH1 0x40 MLOAD SWAP1 DUP2 ADD PUSH1 0x40 MSTORE DUP1 SWAP3 SWAP2 SWAP1 DUP2 DUP2 MSTORE PUSH1 0x20 ADD DUP3 DUP1 SLOAD PUSH2 0x1435 SWAP1 PUSH2 0x1CA5 JUMP JUMPDEST DUP1 ISZERO PUSH2 0x1482 JUMPI DUP1 PUSH1 0x1F LT PUSH2 0x1457 JUMPI PUSH2 0x100 DUP1 DUP4 SLOAD DIV MUL DUP4 MSTORE SWAP2 PUSH1 0x20 ADD SWAP2 PUSH2 0x1482 JUMP JUMPDEST DUP3 ADD SWAP2 SWAP1 PUSH1 0x0 MSTORE PUSH1 0x20 PUSH1 0x0 KECCAK256 SWAP1 JUMPDEST DUP2 SLOAD DUP2 MSTORE SWAP1 PUSH1 0x1 ADD SWAP1 PUSH1 0x20 ADD DUP1 DUP4 GT PUSH2 0x1465 JUMPI DUP3 SWAP1 SUB PUSH1 0x1F AND DUP3 ADD SWAP2 JUMPDEST POP POP POP SWAP2 DUP4 MSTORE POP POP PUSH1 0x5 DUP3 ADD SLOAD PUSH1 0x20 DUP3 ADD MSTORE PUSH1 0x6 DUP3 ADD SLOAD PUSH1 0x40 DUP3 ADD MSTORE PUSH1 0x7 DUP3 ADD SLOAD PUSH1 0x1 PUSH1 0x1 PUSH1 0xA0 SHL SUB SWAP1 DUP2 AND PUSH1 0x60 DUP4 ADD MSTORE PUSH1 0x8 DUP4 ADD SLOAD AND PUSH1 0x80 DUP3 ADD MSTORE PUSH1 0x9 DUP3 ADD SLOAD PUSH1 0xA0 DUP3 ADD MSTORE PUSH1 0xA DUP3 ADD SLOAD PUSH1 0xC0 DUP3 ADD MSTORE PUSH1 0xB SWAP1 SWAP2 ADD SLOAD PUSH1 0xFF AND PUSH1 0xE0 SWAP1 SWAP2 ADD MSTORE DUP4 DUP4 PUSH2 0x14EC DUP2 PUSH2 0x1E82 JUMP JUMPDEST SWAP5 POP DUP2 MLOAD DUP2 LT PUSH2 0x14FE JUMPI PUSH2 0x14FE PUSH2 0x1C8F JUMP JUMPDEST PUSH1 0x20 MUL PUSH1 0x20 ADD ADD DUP2 SWAP1 MSTORE POP JUMPDEST PUSH1 0x1 ADD PUSH2 0x1201 JUMP JUMPDEST POP SWAP1 SWAP4 SWAP3 POP POP POP JUMP JUMPDEST PUSH1 0x1 SLOAD DUP3 LT PUSH2 0x153C JUMPI PUSH1 0x40 MLOAD PUSH3 0x461BCD PUSH1 0xE5 SHL DUP2 MSTORE PUSH1 0x4 ADD PUSH2 0x266 SWAP1 PUSH2 0x1C69 JUMP JUMPDEST PUSH1 0x0 PUSH1 0x1 DUP4 DUP2 SLOAD DUP2 LT PUSH2 0x1551 JUMPI PUSH2 0x1551 PUSH2 0x1C8F JUMP JUMPDEST PUSH1 0x0 SWAP2 DUP3 MSTORE PUSH1 0x20 SWAP1 SWAP2 KECCAK256 PUSH1 0xB PUSH1 0xC SWAP1 SWAP3 MUL ADD SWAP1 DUP2 ADD SLOAD SWAP1 SWAP2 POP PUSH1 0xFF AND PUSH1 0x1 EQ PUSH2 0x158C JUMPI PUSH1 0x40 MLOAD PUSH3 0x461BCD PUSH1 0xE5 SHL DUP2 MSTORE PUSH1 0x4 ADD PUSH2 0x266 SWAP1 PUSH2 0x1E5D JUMP JUMPDEST PUSH1 0x8 DUP2 ADD SLOAD PUSH1 0x1 PUSH1 0x1 PUSH1 0xA0 SHL SUB AND CALLER EQ PUSH2 0x15DD JUMPI PUSH1 0x40 MLOAD PUSH3 0x461BCD PUSH1 0xE5 SHL DUP2 MSTORE PUSH1 0x20 PUSH1 0x4 DUP3 ADD MSTORE PUSH1 0x12 PUSH1 0x24 DUP3 ADD MSTORE PUSH18 0x139BDD08185CDCDA59DB9959081859D95B9D PUSH1 0x72 SHL PUSH1 0x44 DUP3 ADD MSTORE PUSH1 0x64 ADD PUSH2 0x266 JUMP JUMPDEST PUSH1 0x9 DUP2 ADD DUP3 SWAP1 SSTORE PUSH1 0x40 DUP1 MLOAD DUP4 DUP2 MSTORE TIMESTAMP PUSH1 0x20 DUP3 ADD MSTORE CALLER SWAP2 DUP6 SWAP2 PUSH32 0xF46A13D6D6628B4030D28874EAA1507890BE050B8D2A85CED0BF95C46229BAB5 SWAP2 ADD PUSH1 0x40 MLOAD DUP1 SWAP2 SUB SWAP1 LOG3 POP POP POP JUMP JUMPDEST PUSH2 0x162D PUSH2 0x169F JUMP JUMPDEST PUSH1 0x1 PUSH1 0x1 PUSH1 0xA0 SHL SUB DUP2 AND PUSH2 0x1657 JUMPI PUSH1 0x40 MLOAD PUSH4 0x1E4FBDF7 PUSH1 0xE0 SHL DUP2 MSTORE PUSH1 0x0 PUSH1 0x4 DUP3 ADD MSTORE PUSH1 0x24 ADD PUSH2 0x266 JUMP JUMPDEST PUSH2 0x1660 DUP2 PUSH2 0x16CC JUMP JUMPDEST POP JUMP JUMPDEST PUSH2 0x1671 DUP5 DUP5 DUP5 DUP5 PUSH1 0x1 PUSH2 0x1756 JUMP JUMPDEST PUSH2 0x1699 JUMPI PUSH1 0x40 MLOAD PUSH4 0x5274AFE7 PUSH1 0xE0 SHL DUP2 MSTORE PUSH1 0x1 PUSH1 0x1 PUSH1 0xA0 SHL SUB DUP6 AND PUSH1 0x4 DUP3 ADD MSTORE PUSH1 0x24 ADD PUSH2 0x266 JUMP JUMPDEST POP POP POP POP JUMP JUMPDEST PUSH1 0x0 SLOAD PUSH1 0x1 PUSH1 0x1 PUSH1 0xA0 SHL SUB AND CALLER EQ PUSH2 0x824 JUMPI PUSH1 0x40 MLOAD PUSH4 0x118CDAA7 PUSH1 0xE0 SHL DUP2 MSTORE CALLER PUSH1 0x4 DUP3 ADD MSTORE PUSH1 0x24 ADD PUSH2 0x266 JUMP JUMPDEST PUSH1 0x0 DUP1 SLOAD PUSH1 0x1 PUSH1 0x1 PUSH1 0xA0 SHL SUB DUP4 DUP2 AND PUSH1 0x1 PUSH1 0x1 PUSH1 0xA0 SHL SUB NOT DUP4 AND DUP2 OR DUP5 SSTORE PUSH1 0x40 MLOAD SWAP2 SWAP1 SWAP3 AND SWAP3 DUP4 SWAP2 PUSH32 0x8BE0079C531659141344CD1FD0A4F28419497F9722A3DAAFE3B4186F6B6457E0 SWAP2 SWAP1 LOG3 POP POP JUMP JUMPDEST PUSH2 0x1729 DUP4 DUP4 DUP4 PUSH1 0x1 PUSH2 0x17C8 JUMP JUMPDEST PUSH2 0x1751 JUMPI PUSH1 0x40 MLOAD PUSH4 0x5274AFE7 PUSH1 0xE0 SHL DUP2 MSTORE PUSH1 0x1 PUSH1 0x1 PUSH1 0xA0 SHL SUB DUP5 AND PUSH1 0x4 DUP3 ADD MSTORE PUSH1 0x24 ADD PUSH2 0x266 JUMP JUMPDEST POP POP POP JUMP JUMPDEST PUSH1 0x40 MLOAD PUSH4 0x23B872DD PUSH1 0xE0 SHL PUSH1 0x0 DUP2 DUP2 MSTORE PUSH1 0x1 PUSH1 0x1 PUSH1 0xA0 SHL SUB DUP8 DUP2 AND PUSH1 0x4 MSTORE DUP7 AND PUSH1 0x24 MSTORE PUSH1 0x44 DUP6 SWAP1 MSTORE SWAP2 PUSH1 0x20 DUP4 PUSH1 0x64 DUP2 DUP1 DUP13 GAS CALL SWAP3 POP PUSH1 0x1 PUSH1 0x0 MLOAD EQ DUP4 AND PUSH2 0x17B6 JUMPI DUP4 DUP4 ISZERO AND ISZERO PUSH2 0x17A9 JUMPI RETURNDATASIZE PUSH1 0x0 DUP3 RETURNDATACOPY RETURNDATASIZE DUP2 REVERT JUMPDEST PUSH1 0x0 DUP9 EXTCODESIZE GT RETURNDATASIZE ISZERO AND DUP4 AND SWAP3 POP JUMPDEST PUSH1 0x40 MSTORE POP PUSH1 0x0 PUSH1 0x60 MSTORE SWAP6 SWAP5 POP POP POP POP POP JUMP JUMPDEST PUSH1 0x40 MLOAD PUSH4 0xA9059CBB PUSH1 0xE0 SHL PUSH1 0x0 DUP2 DUP2 MSTORE PUSH1 0x1 PUSH1 0x1 PUSH1 0xA0 SHL SUB DUP7 AND PUSH1 0x4 MSTORE PUSH1 0x24 DUP6 SWAP1 MSTORE SWAP2 PUSH1 0x20 DUP4 PUSH1 0x44 DUP2 DUP1 DUP12 GAS CALL SWAP3 POP PUSH1 0x1 PUSH1 0x0 MLOAD EQ DUP4 AND PUSH2 0x1822 JUMPI DUP4 DUP4 ISZERO AND ISZERO PUSH2 0x1815 JUMPI RETURNDATASIZE PUSH1 0x0 DUP3 RETURNDATACOPY RETURNDATASIZE DUP2 REVERT JUMPDEST PUSH1 0x0 DUP8 EXTCODESIZE GT RETURNDATASIZE ISZERO AND DUP4 AND SWAP3 POP JUMPDEST PUSH1 0x40 MSTORE POP SWAP5 SWAP4 POP POP POP POP JUMP JUMPDEST PUSH1 0x40 MLOAD DUP1 PUSH2 0x180 ADD PUSH1 0x40 MSTORE DUP1 PUSH1 0x0 DUP2 MSTORE PUSH1 0x20 ADD PUSH1 0x0 PUSH1 0x1 PUSH1 0x1 PUSH1 0xA0 SHL SUB AND DUP2 MSTORE PUSH1 0x20 ADD PUSH1 0x60 DUP2 MSTORE PUSH1 0x20 ADD PUSH1 0x60 DUP2 MSTORE PUSH1 0x20 ADD PUSH1 0x60 DUP2 MSTORE PUSH1 0x20 ADD PUSH1 0x0 DUP2 MSTORE PUSH1 0x20 ADD PUSH1 0x0 DUP2 MSTORE PUSH1 0x20 ADD PUSH1 0x0 PUSH1 0x1 PUSH1 0x1 PUSH1 0xA0 SHL SUB AND DUP2 MSTORE PUSH1 0x20 ADD PUSH1 0x0 PUSH1 0x1 PUSH1 0x1 PUSH1 0xA0 SHL SUB AND DUP2 MSTORE PUSH1 0x20 ADD PUSH1 0x0 DUP1 NOT AND DUP2 MSTORE PUSH1 0x20 ADD PUSH1 0x0 DUP2 MSTORE PUSH1 0x20 ADD PUSH1 0x0 PUSH1 0xFF AND DUP2 MSTORE POP SWAP1 JUMP JUMPDEST PUSH1 0x0 PUSH1 0x20 DUP3 DUP5 SUB SLT ISZERO PUSH2 0x18C2 JUMPI PUSH1 0x0 DUP1 REVERT JUMPDEST POP CALLDATALOAD SWAP2 SWAP1 POP JUMP JUMPDEST PUSH1 0x0 DUP2 MLOAD DUP1 DUP5 MSTORE PUSH1 0x0 JUMPDEST DUP2 DUP2 LT ISZERO PUSH2 0x18EF JUMPI PUSH1 0x20 DUP2 DUP6 ADD DUP2 ADD MLOAD DUP7 DUP4 ADD DUP3 ADD MSTORE ADD PUSH2 0x18D3 JUMP JUMPDEST POP PUSH1 0x0 PUSH1 0x20 DUP3 DUP7 ADD ADD MSTORE PUSH1 0x20 PUSH1 0x1F NOT PUSH1 0x1F DUP4 ADD AND DUP6 ADD ADD SWAP2 POP POP SWAP3 SWAP2 POP POP JUMP JUMPDEST PUSH1 0x0 PUSH2 0x180 DUP3 MLOAD DUP5 MSTORE PUSH1 0x20 DUP4 ADD MLOAD PUSH2 0x1932 PUSH1 0x20 DUP7 ADD DUP3 PUSH1 0x1 PUSH1 0x1 PUSH1 0xA0 SHL SUB AND SWAP1 MSTORE JUMP JUMPDEST POP PUSH1 0x40 DUP4 ADD MLOAD DUP2 PUSH1 0x40 DUP7 ADD MSTORE PUSH2 0x194A DUP3 DUP7 ADD DUP3 PUSH2 0x18C9 JUMP JUMPDEST SWAP2 POP POP PUSH1 0x60 DUP4 ADD MLOAD DUP5 DUP3 SUB PUSH1 0x60 DUP7 ADD MSTORE PUSH2 0x1964 DUP3 DUP3 PUSH2 0x18C9 JUMP JUMPDEST SWAP2 POP POP PUSH1 0x80 DUP4 ADD MLOAD DUP5 DUP3 SUB PUSH1 0x80 DUP7 ADD MSTORE PUSH2 0x197E DUP3 DUP3 PUSH2 0x18C9 JUMP JUMPDEST SWAP2 POP POP PUSH1 0xA0 DUP4 ADD MLOAD PUSH1 0xA0 DUP6 ADD MSTORE PUSH1 0xC0 DUP4 ADD MLOAD PUSH1 0xC0 DUP6 ADD MSTORE PUSH1 0xE0 DUP4 ADD MLOAD PUSH2 0x19AF PUSH1 0xE0 DUP7 ADD DUP3 PUSH1 0x1 PUSH1 0x1 PUSH1 0xA0 SHL SUB AND SWAP1 MSTORE JUMP JUMPDEST POP PUSH2 0x100 DUP4 DUP2 ADD MLOAD PUSH1 0x1 PUSH1 0x1 PUSH1 0xA0 SHL SUB AND SWAP1 DUP6 ADD MSTORE PUSH2 0x120 DUP1 DUP5 ADD MLOAD SWAP1 DUP6 ADD MSTORE PUSH2 0x140 DUP1 DUP5 ADD MLOAD SWAP1 DUP6 ADD MSTORE PUSH2 0x160 SWAP3 DUP4 ADD MLOAD PUSH1 0xFF AND SWAP3 SWAP1 SWAP4 ADD SWAP2 SWAP1 SWAP2 MSTORE POP SWAP1 JUMP JUMPDEST PUSH1 0x20 DUP2 MSTORE PUSH1 0x0 PUSH2 0x1A03 PUSH1 0x20 DUP4 ADD DUP5 PUSH2 0x190F JUMP JUMPDEST SWAP4 SWAP3 POP POP POP JUMP JUMPDEST DUP1 CALLDATALOAD PUSH1 0x1 PUSH1 0x1 PUSH1 0xA0 SHL SUB DUP2 AND DUP2 EQ PUSH2 0x1A21 JUMPI PUSH1 0x0 DUP1 REVERT JUMPDEST SWAP2 SWAP1 POP JUMP JUMPDEST PUSH1 0x0 DUP1 DUP4 PUSH1 0x1F DUP5 ADD SLT PUSH2 0x1A38 JUMPI PUSH1 0x0 DUP1 REVERT JUMPDEST POP DUP2 CALLDATALOAD PUSH8 0xFFFFFFFFFFFFFFFF DUP2 GT ISZERO PUSH2 0x1A50 JUMPI PUSH1 0x0 DUP1 REVERT JUMPDEST PUSH1 0x20 DUP4 ADD SWAP2 POP DUP4 PUSH1 0x20 DUP3 DUP6 ADD ADD GT ISZERO PUSH2 0x1A68 JUMPI PUSH1 0x0 DUP1 REVERT JUMPDEST SWAP3 POP SWAP3 SWAP1 POP JUMP JUMPDEST PUSH1 0x0 DUP1 PUSH1 0x0 DUP1 PUSH1 0x0 DUP1 PUSH1 0x0 DUP1 PUSH1 0x0 PUSH1 0xC0 DUP11 DUP13 SUB SLT ISZERO PUSH2 0x1A8D JUMPI PUSH1 0x0 DUP1 REVERT JUMPDEST PUSH2 0x1A96 DUP11 PUSH2 0x1A0A JUMP JUMPDEST SWAP9 POP PUSH1 0x20 DUP11 ADD CALLDATALOAD PUSH8 0xFFFFFFFFFFFFFFFF DUP1 DUP3 GT ISZERO PUSH2 0x1AB3 JUMPI PUSH1 0x0 DUP1 REVERT JUMPDEST PUSH2 0x1ABF DUP14 DUP4 DUP15 ADD PUSH2 0x1A26 JUMP JUMPDEST SWAP1 SWAP11 POP SWAP9 POP PUSH1 0x40 DUP13 ADD CALLDATALOAD SWAP2 POP DUP1 DUP3 GT ISZERO PUSH2 0x1AD8 JUMPI PUSH1 0x0 DUP1 REVERT JUMPDEST PUSH2 0x1AE4 DUP14 DUP4 DUP15 ADD PUSH2 0x1A26 JUMP JUMPDEST SWAP1 SWAP9 POP SWAP7 POP PUSH1 0x60 DUP13 ADD CALLDATALOAD SWAP2 POP DUP1 DUP3 GT ISZERO PUSH2 0x1AFD JUMPI PUSH1 0x0 DUP1 REVERT JUMPDEST POP PUSH2 0x1B0A DUP13 DUP3 DUP14 ADD PUSH2 0x1A26 JUMP JUMPDEST SWAP11 SWAP14 SWAP10 SWAP13 POP SWAP8 SWAP11 SWAP7 SWAP10 SWAP6 SWAP9 SWAP6 SWAP7 PUSH1 0x80 DUP2 ADD CALLDATALOAD SWAP7 PUSH1 0xA0 SWAP1 SWAP2 ADD CALLDATALOAD SWAP6 POP SWAP4 POP POP POP POP JUMP JUMPDEST PUSH1 0x0 PUSH1 0x20 DUP1 DUP4 ADD PUSH1 0x20 DUP5 MSTORE DUP1 DUP6 MLOAD DUP1 DUP4 MSTORE PUSH1 0x40 DUP7 ADD SWAP2 POP PUSH1 0x40 DUP2 PUSH1 0x5 SHL DUP8 ADD ADD SWAP3 POP PUSH1 0x20 DUP8 ADD PUSH1 0x0 JUMPDEST DUP3 DUP2 LT ISZERO PUSH2 0x1B83 JUMPI PUSH1 0x3F NOT DUP9 DUP7 SUB ADD DUP5 MSTORE PUSH2 0x1B71 DUP6 DUP4 MLOAD PUSH2 0x190F JUMP JUMPDEST SWAP5 POP SWAP3 DUP6 ADD SWAP3 SWAP1 DUP6 ADD SWAP1 PUSH1 0x1 ADD PUSH2 0x1B55 JUMP JUMPDEST POP SWAP3 SWAP8 SWAP7 POP POP POP POP POP POP POP JUMP JUMPDEST DUP13 DUP2 MSTORE PUSH1 0x1 PUSH1 0x1 PUSH1 0xA0 SHL SUB DUP13 DUP2 AND PUSH1 0x20 DUP4 ADD MSTORE PUSH2 0x180 PUSH1 0x40 DUP4 ADD DUP2 SWAP1 MSTORE PUSH1 0x0 SWAP2 PUSH2 0x1BBC DUP5 DUP4 ADD DUP16 PUSH2 0x18C9 JUMP JUMPDEST SWAP2 POP DUP4 DUP3 SUB PUSH1 0x60 DUP6 ADD MSTORE PUSH2 0x1BD0 DUP3 DUP15 PUSH2 0x18C9 JUMP JUMPDEST SWAP2 POP DUP4 DUP3 SUB PUSH1 0x80 DUP6 ADD MSTORE PUSH2 0x1BE4 DUP3 DUP14 PUSH2 0x18C9 JUMP JUMPDEST PUSH1 0xA0 DUP6 ADD SWAP12 SWAP1 SWAP12 MSTORE PUSH1 0xC0 DUP5 ADD SWAP10 SWAP1 SWAP10 MSTORE POP POP SWAP5 DUP7 AND PUSH1 0xE0 DUP7 ADD MSTORE SWAP3 SWAP1 SWAP5 AND PUSH2 0x100 DUP5 ADD MSTORE PUSH2 0x120 DUP4 ADD MSTORE PUSH2 0x140 DUP3 ADD SWAP3 SWAP1 SWAP3 MSTORE PUSH1 0xFF SWAP1 SWAP2 AND PUSH2 0x160 SWAP1 SWAP2 ADD MSTORE SWAP6 SWAP5 POP POP POP POP POP JUMP JUMPDEST PUSH1 0x0 DUP1 PUSH1 0x40 DUP4 DUP6 SUB SLT ISZERO PUSH2 0x1C3F JUMPI PUSH1 0x0 DUP1 REVERT JUMPDEST POP POP DUP1 CALLDATALOAD SWAP3 PUSH1 0x20 SWAP1 SWAP2 ADD CALLDATALOAD SWAP2 POP JUMP JUMPDEST PUSH1 0x0 PUSH1 0x20 DUP3 DUP5 SUB SLT ISZERO PUSH2 0x1C60 JUMPI PUSH1 0x0 DUP1 REVERT JUMPDEST PUSH2 0x1A03 DUP3 PUSH2 0x1A0A JUMP JUMPDEST PUSH1 0x20 DUP1 DUP3 MSTORE PUSH1 0xC SWAP1 DUP3 ADD MSTORE PUSH12 0x496E76616C6964207461736B PUSH1 0xA0 SHL PUSH1 0x40 DUP3 ADD MSTORE PUSH1 0x60 ADD SWAP1 JUMP JUMPDEST PUSH4 0x4E487B71 PUSH1 0xE0 SHL PUSH1 0x0 MSTORE PUSH1 0x32 PUSH1 0x4 MSTORE PUSH1 0x24 PUSH1 0x0 REVERT JUMPDEST PUSH1 0x1 DUP2 DUP2 SHR SWAP1 DUP3 AND DUP1 PUSH2 0x1CB9 JUMPI PUSH1 0x7F DUP3 AND SWAP2 POP JUMPDEST PUSH1 0x20 DUP3 LT DUP2 SUB PUSH2 0x1CD9 JUMPI PUSH4 0x4E487B71 PUSH1 0xE0 SHL PUSH1 0x0 MSTORE PUSH1 0x22 PUSH1 0x4 MSTORE PUSH1 0x24 PUSH1 0x0 REVERT JUMPDEST POP SWAP2 SWAP1 POP JUMP JUMPDEST PUSH4 0x4E487B71 PUSH1 0xE0 SHL PUSH1 0x0 MSTORE PUSH1 0x41 PUSH1 0x4 MSTORE PUSH1 0x24 PUSH1 0x0 REVERT JUMPDEST PUSH1 0x1F DUP3 GT ISZERO PUSH2 0x1751 JUMPI PUSH1 0x0 DUP2 PUSH1 0x0 MSTORE PUSH1 0x20 PUSH1 0x0 KECCAK256 PUSH1 0x1F DUP6 ADD PUSH1 0x5 SHR DUP2 ADD PUSH1 0x20 DUP7 LT ISZERO PUSH2 0x1D1E JUMPI POP DUP1 JUMPDEST PUSH1 0x1F DUP6 ADD PUSH1 0x5 SHR DUP3 ADD SWAP2 POP JUMPDEST DUP2 DUP2 LT ISZERO PUSH2 0x1D3D JUMPI DUP3 DUP2 SSTORE PUSH1 0x1 ADD PUSH2 0x1D2A JUMP JUMPDEST POP POP POP POP POP POP JUMP JUMPDEST DUP2 MLOAD PUSH8 0xFFFFFFFFFFFFFFFF DUP2 GT ISZERO PUSH2 0x1D5F JUMPI PUSH2 0x1D5F PUSH2 0x1CDF JUMP JUMPDEST PUSH2 0x1D73 DUP2 PUSH2 0x1D6D DUP5 SLOAD PUSH2 0x1CA5 JUMP JUMPDEST DUP5 PUSH2 0x1CF5 JUMP JUMPDEST PUSH1 0x20 DUP1 PUSH1 0x1F DUP4 GT PUSH1 0x1 DUP2 EQ PUSH2 0x1DA8 JUMPI PUSH1 0x0 DUP5 ISZERO PUSH2 0x1D90 JUMPI POP DUP6 DUP4 ADD MLOAD JUMPDEST PUSH1 0x0 NOT PUSH1 0x3 DUP7 SWAP1 SHL SHR NOT AND PUSH1 0x1 DUP6 SWAP1 SHL OR DUP6 SSTORE PUSH2 0x1D3D JUMP JUMPDEST PUSH1 0x0 DUP6 DUP2 MSTORE PUSH1 0x20 DUP2 KECCAK256 PUSH1 0x1F NOT DUP7 AND SWAP2 JUMPDEST DUP3 DUP2 LT ISZERO PUSH2 0x1DD7 JUMPI DUP9 DUP7 ADD MLOAD DUP3 SSTORE SWAP5 DUP5 ADD SWAP5 PUSH1 0x1 SWAP1 SWAP2 ADD SWAP1 DUP5 ADD PUSH2 0x1DB8 JUMP JUMPDEST POP DUP6 DUP3 LT ISZERO PUSH2 0x1DF5 JUMPI DUP8 DUP6 ADD MLOAD PUSH1 0x0 NOT PUSH1 0x3 DUP9 SWAP1 SHL PUSH1 0xF8 AND SHR NOT AND DUP2 SSTORE JUMPDEST POP POP POP POP POP PUSH1 0x1 SWAP1 DUP2 SHL ADD SWAP1 SSTORE POP JUMP JUMPDEST PUSH1 0x1 PUSH1 0x1 PUSH1 0xA0 SHL SUB DUP8 AND DUP2 MSTORE PUSH1 0xA0 PUSH1 0x20 DUP3 ADD DUP2 SWAP1 MSTORE DUP2 ADD DUP6 SWAP1 MSTORE DUP5 DUP7 PUSH1 0xC0 DUP4 ADD CALLDATACOPY PUSH1 0x0 PUSH1 0xC0 DUP7 DUP4 ADD ADD MSTORE PUSH1 0x0 PUSH1 0xC0 PUSH1 0x1F NOT PUSH1 0x1F DUP9 ADD AND DUP4 ADD ADD SWAP1 POP DUP5 PUSH1 0x40 DUP4 ADD MSTORE DUP4 PUSH1 0x60 DUP4 ADD MSTORE DUP3 PUSH1 0x80 DUP4 ADD MSTORE SWAP8 SWAP7 POP POP POP POP POP POP POP JUMP JUMPDEST PUSH1 0x20 DUP1 DUP3 MSTORE PUSH1 0xB SWAP1 DUP3 ADD MSTORE PUSH11 0x139BDD0818DB185A5B5959 PUSH1 0xAA SHL PUSH1 0x40 DUP3 ADD MSTORE PUSH1 0x60 ADD SWAP1 JUMP JUMPDEST PUSH1 0x0 PUSH1 0x1 DUP3 ADD PUSH2 0x1EA2 JUMPI PUSH4 0x4E487B71 PUSH1 0xE0 SHL PUSH1 0x0 MSTORE PUSH1 0x11 PUSH1 0x4 MSTORE PUSH1 0x24 PUSH1 0x0 REVERT JUMPDEST POP PUSH1 0x1 ADD SWAP1 JUMP INVALID LOG2 PUSH5 0x6970667358 0x22 SLT KECCAK256 0xB8 SELFDESTRUCT SWAP13 JUMPDEST 0xFB 0xC PUSH16 0x1274806557FC90FBD90E41FB2400EB82 DUP13 PUSH7 0x7073D7E51732B7 PUSH5 0x736F6C6343 STOP ADDMOD XOR STOP CALLER "},"methodIdentifiers":{"approveDelivery(uint256)":"c94b674b","claimTask(uint256)":"8dd33495","disputeDelivery(uint256)":"adcb9f04","getAllTasks()":"779900b4","getOpenTasks()":"d5a82aa0","getTask(uint256)":"1d65e77e","linkToken()":"57970e93","owner()":"8da5cb5b","postTask(address,string,string,string,uint256,uint256)":"2e4378f2","renounceOwnership()":"715018a6","submitDelivery(uint256,bytes32)":"d8dc8c28","taskCount()":"b6cb58a5","tasks(uint256)":"8d977672","transferOwnership(address)":"f2fde38b"}}}}}