{"contracts/SwarmTreasuryLink.sol":{"SwarmTreasuryLink":{"abi":[{"inputs":[{"internalType":"address","name":"_linkToken","type":"address"}],"stateMutability":"nonpayable","type":"constructor"},{"inputs":[{"internalType":"address","name":"owner","type":"address"}],"name":"OwnableInvalidOwner","type":"error"},{"inputs":[{"internalType":"address","name":"account","type":"address"}],"name":"OwnableUnauthorizedAccount","type":"error"},{"inputs":[{"internalType":"address","name":"token","type":"address"}],"name":"SafeERC20FailedOperation","type":"error"},{"anonymous":false,"inputs":[{"indexed":true,"internalType":"address","name":"newAgent","type":"address"},{"indexed":false,"internalType":"uint256","name":"timestamp","type":"uint256"}],"name":"AgentAddressUpdated","type":"event"},{"anonymous":false,"inputs":[{"indexed":true,"internalType":"address","name":"previousOwner","type":"address"},{"indexed":true,"internalType":"address","name":"newOwner","type":"address"}],"name":"OwnershipTransferred","type":"event"},{"anonymous":false,"inputs":[{"indexed":true,"internalType":"address","name":"from","type":"address"},{"indexed":false,"internalType":"uint256","name":"amount","type":"uint256"},{"indexed":false,"internalType":"uint256","name":"timestamp","type":"uint256"}],"name":"RevenueDeposited","type":"event"},{"anonymous":false,"inputs":[{"indexed":true,"internalType":"address","name":"to","type":"address"},{"indexed":false,"internalType":"uint256","name":"amount","type":"uint256"},{"indexed":false,"internalType":"uint256","name":"timestamp","type":"uint256"}],"name":"Withdrawn","type":"event"},{"inputs":[],"name":"COMPUTE_BPS","outputs":[{"internalType":"uint256","name":"","type":"uint256"}],"stateMutability":"view","type":"function"},{"inputs":[],"name":"GROWTH_BPS","outputs":[{"internalType":"uint256","name":"","type":"uint256"}],"stateMutability":"view","type":"function"},{"inputs":[],"name":"RESERVE_BPS","outputs":[{"internalType":"uint256","name":"","type":"uint256"}],"stateMutability":"view","type":"function"},{"inputs":[],"name":"agentAddress","outputs":[{"internalType":"address","name":"","type":"address"}],"stateMutability":"view","type":"function"},{"inputs":[],"name":"computeBalance","outputs":[{"internalType":"uint256","name":"","type":"uint256"}],"stateMutability":"view","type":"function"},{"inputs":[{"internalType":"uint256","name":"amount","type":"uint256"}],"name":"depositRevenue","outputs":[],"stateMutability":"nonpayable","type":"function"},{"inputs":[],"name":"getPnL","outputs":[{"internalType":"uint256","name":"_totalRevenue","type":"uint256"},{"internalType":"uint256","name":"_computeBalance","type":"uint256"},{"internalType":"uint256","name":"_growthBalance","type":"uint256"},{"internalType":"uint256","name":"_reserveBalance","type":"uint256"}],"stateMutability":"view","type":"function"},{"inputs":[],"name":"growthBalance","outputs":[{"internalType":"uint256","name":"","type":"uint256"}],"stateMutability":"view","type":"function"},{"inputs":[],"name":"linkToken","outputs":[{"internalType":"contract IERC20","name":"","type":"address"}],"stateMutability":"view","type":"function"},{"inputs":[],"name":"owner","outputs":[{"internalType":"address","name":"","type":"address"}],"stateMutability":"view","type":"function"},{"inputs":[],"name":"renounceOwnership","outputs":[],"stateMutability":"nonpayable","type":"function"},{"inputs":[],"name":"reserveBalance","outputs":[{"internalType":"uint256","name":"","type":"uint256"}],"stateMutability":"view","type":"function"},{"inputs":[{"internalType":"address","name":"_agentAddress","type":"address"}],"name":"setAgentAddress","outputs":[],"stateMutability":"nonpayable","type":"function"},{"inputs":[],"name":"totalRevenue","outputs":[{"internalType":"uint256","name":"","type":"uint256"}],"stateMutability":"view","type":"function"},{"inputs":[{"internalType":"address","name":"newOwner","type":"address"}],"name":"transferOwnership","outputs":[],"stateMutability":"nonpayable","type":"function"},{"inputs":[{"internalType":"address","name":"to","type":"address"},{"internalType":"uint256","name":"amount","type":"uint256"}],"name":"withdraw","outputs":[],"stateMutability":"nonpayable","type":"function"}],"evm":{"bytecode":{"linkReferences":{},"object":"60a060405234801561001057600080fd5b50604051610a8b380380610a8b83398101604081905261002f91610117565b338061005657604051631e4fbdf760e01b8152600060048201526024015b60405180910390fd5b61005f816100c7565b506001600160a01b0381166100b65760405162461bcd60e51b815260206004820152601460248201527f496e76616c6964204c494e4b2061646472657373000000000000000000000000604482015260640161004d565b6001600160a01b0316608052610147565b600080546001600160a01b038381166001600160a01b0319831681178455604051919092169283917f8be0079c531659141344cd1fd0a4f28419497f9722a3daafe3b4186f6b6457e09190a35050565b60006020828403121561012957600080fd5b81516001600160a01b038116811461014057600080fd5b9392505050565b6080516109146101776000396000818161016301528181610303015281816104c6015261058f01526109146000f3fe608060405234801561001057600080fd5b50600436106101005760003560e01c8063a10954fe11610097578063e41dc9f811610066578063e41dc9f814610204578063ebb6e91c1461020d578063f2fde38b14610216578063f3fef3a31461022957600080fd5b8063a10954fe146101b3578063b03c770c146101bc578063bc1ca3e9146101e8578063bf2d9e0b146101fb57600080fd5b806357970e93116100d357806357970e931461015e578063715018a614610185578063895ce1851461018f5780638da5cb5b146101a257600080fd5b806315638c68146101055780632b33152114610121578063386136901461012a57806341cfe8ab14610155575b600080fd5b61010e60035481565b6040519081526020015b60405180910390f35b61010e61138881565b60055461013d906001600160a01b031681565b6040516001600160a01b039091168152602001610118565b61010e610bb881565b61013d7f000000000000000000000000000000000000000000000000000000000000000081565b61018d61023c565b005b61018d61019d3660046107e5565b610250565b6000546001600160a01b031661013d565b61010e60045481565b600154600254600354600454604080519485526020850193909352918301526060820152608001610118565b61018d6101f6366004610807565b6102ac565b61010e60015481565b61010e6107d081565b61010e60025481565b61018d6102243660046107e5565b610420565b61018d610237366004610820565b61045e565b6102446105fe565b61024e600061062b565b565b6102586105fe565b600580546001600160a01b0319166001600160a01b0383169081179091556040514281527f3b18696bdcb9c4f995935bbac37f4fc6139b8c1317130878f3b675a849a8b8689060200160405180910390a250565b600081116102f65760405162461bcd60e51b81526020600482015260126024820152710416d6f756e74206d757374206265203e20360741b60448201526064015b60405180910390fd5b61032b6001600160a01b037f00000000000000000000000000000000000000000000000000000000000000001633308461067b565b600061271061033c61138884610860565b610346919061087d565b90506000612710610359610bb885610860565b610363919061087d565b9050600081610372848661089f565b61037c919061089f565b9050836001600082825461039091906108b2565b9250508190555082600260008282546103a991906108b2565b9250508190555081600360008282546103c291906108b2565b9250508190555080600460008282546103db91906108b2565b90915550506040805185815242602082015233917f2f22b7f6e7f7df7d0eb3d1a543a2b6eb906e76a03540c2d66d2725270a5f6d31910160405180910390a250505050565b6104286105fe565b6001600160a01b03811661045257604051631e4fbdf760e01b8152600060048201526024016102ed565b61045b8161062b565b50565b6104666105fe565b6001600160a01b0382166104ae5760405162461bcd60e51b815260206004820152600f60248201526e496e76616c6964206164647265737360881b60448201526064016102ed565b6040516370a0823160e01b81523060048201526000907f00000000000000000000000000000000000000000000000000000000000000006001600160a01b0316906370a0823190602401602060405180830381865afa158015610515573d6000803e3d6000fd5b505050506040513d601f19601f8201168201806040525081019061053991906108c5565b9050808211156105825760405162461bcd60e51b8152602060048201526014602482015273496e73756666696369656e742062616c616e636560601b60448201526064016102ed565b6105b66001600160a01b037f00000000000000000000000000000000000000000000000000000000000000001684846106b7565b604080518381524260208201526001600160a01b038516917f92ccf450a286a957af52509bc1c9939d1a6a481783e142e41e2499f0bb66ebc6910160405180910390a2505050565b6000546001600160a01b0316331461024e5760405163118cdaa760e01b81523360048201526024016102ed565b600080546001600160a01b038381166001600160a01b0319831681178455604051919092169283917f8be0079c531659141344cd1fd0a4f28419497f9722a3daafe3b4186f6b6457e09190a35050565b6106898484848460016106f1565b6106b157604051635274afe760e01b81526001600160a01b03851660048201526024016102ed565b50505050565b6106c48383836001610763565b6106ec57604051635274afe760e01b81526001600160a01b03841660048201526024016102ed565b505050565b6040516323b872dd60e01b60008181526001600160a01b038781166004528616602452604485905291602083606481808c5af192506001600051148316610751578383151615610744573d6000823e3d81fd5b6000883b113d1516831692505b60405250600060605295945050505050565b60405163a9059cbb60e01b60008181526001600160a01b038616600452602485905291602083604481808b5af1925060016000511483166107bd5783831516156107b0573d6000823e3d81fd5b6000873b113d1516831692505b60405250949350505050565b80356001600160a01b03811681146107e057600080fd5b919050565b6000602082840312156107f757600080fd5b610800826107c9565b9392505050565b60006020828403121561081957600080fd5b5035919050565b6000806040838503121561083357600080fd5b61083c836107c9565b946020939093013593505050565b634e487b7160e01b600052601160045260246000fd5b80820281158282048414176108775761087761084a565b92915050565b60008261089a57634e487b7160e01b600052601260045260246000fd5b500490565b818103818111156108775761087761084a565b808201808211156108775761087761084a565b6000602082840312156108d757600080fd5b505191905056fea2646970667358221220ceeaadc3bc9ee9acfd55876464b6c343b64b22c78620bcef9b8e636b7d3dd8a164736f6c63430008180033","opcodes":"PUSH1 0xA0 PUSH1 0x40 MSTORE CALLVALUE DUP1 ISZERO PUSH2 0x10 JUMPI PUSH1 0x0 DUP1 REVERT JUMPDEST POP PUSH1 0x40 MLOAD PUSH2 0xA8B CODESIZE SUB DUP1 PUSH2 0xA8B DUP4 CODECOPY DUP2 ADD PUSH1 0x40 DUP2 SWAP1 MSTORE PUSH2 0x2F SWAP2 PUSH2 0x117 JUMP JUMPDEST CALLER DUP1 PUSH2 0x56 JUMPI PUSH1 0x40 MLOAD PUSH4 0x1E4FBDF7 PUSH1 0xE0 SHL DUP2 MSTORE PUSH1 0x0 PUSH1 0x4 DUP3 ADD MSTORE PUSH1 0x24 ADD JUMPDEST PUSH1 0x40 MLOAD DUP1 SWAP2 SUB SWAP1 REVERT JUMPDEST PUSH2 0x5F DUP2 PUSH2 0xC7 JUMP JUMPDEST POP PUSH1 0x1 PUSH1 0x1 PUSH1 0xA0 SHL SUB DUP2 AND PUSH2 0xB6 JUMPI PUSH1 0x40 MLOAD PUSH3 0x461BCD PUSH1 0xE5 SHL DUP2 MSTORE PUSH1 0x20 PUSH1 0x4 DUP3 ADD MSTORE PUSH1 0x14 PUSH1 0x24 DUP3 ADD MSTORE PUSH32 0x496E76616C6964204C494E4B2061646472657373000000000000000000000000 PUSH1 0x44 DUP3 ADD MSTORE PUSH1 0x64 ADD PUSH2 0x4D JUMP JUMPDEST PUSH1 0x1 PUSH1 0x1 PUSH1 0xA0 SHL SUB AND PUSH1 0x80 MSTORE PUSH2 0x147 JUMP JUMPDEST PUSH1 0x0 DUP1 SLOAD PUSH1 0x1 PUSH1 0x1 PUSH1 0xA0 SHL SUB DUP4 DUP2 AND PUSH1 0x1 PUSH1 0x1 PUSH1 0xA0 SHL SUB NOT DUP4 AND DUP2 OR DUP5 SSTORE PUSH1 0x40 MLOAD SWAP2 SWAP1 SWAP3 AND SWAP3 DUP4 SWAP2 PUSH32 0x8BE0079C531659141344CD1FD0A4F28419497F9722A3DAAFE3B4186F6B6457E0 SWAP2 SWAP1 LOG3 POP POP JUMP JUMPDEST PUSH1 0x0 PUSH1 0x20 DUP3 DUP5 SUB SLT ISZERO PUSH2 0x129 JUMPI PUSH1 0x0 DUP1 REVERT JUMPDEST DUP2 MLOAD PUSH1 0x1 PUSH1 0x1 PUSH1 0xA0 SHL SUB DUP2 AND DUP2 EQ PUSH2 0x140 JUMPI PUSH1 0x0 DUP1 REVERT JUMPDEST SWAP4 SWAP3 POP POP POP JUMP JUMPDEST PUSH1 0x80 MLOAD PUSH2 0x914 PUSH2 0x177 PUSH1 0x0 CODECOPY PUSH1 0x0 DUP2 DUP2 PUSH2 0x163 ADD MSTORE DUP2 DUP2 PUSH2 0x303 ADD MSTORE DUP2 DUP2 PUSH2 0x4C6 ADD MSTORE PUSH2 0x58F ADD MSTORE PUSH2 0x914 PUSH1 0x0 RETURN INVALID PUSH1 0x80 PUSH1 0x40 MSTORE CALLVALUE DUP1 ISZERO PUSH2 0x10 JUMPI PUSH1 0x0 DUP1 REVERT JUMPDEST POP PUSH1 0x4 CALLDATASIZE LT PUSH2 0x100 JUMPI PUSH1 0x0 CALLDATALOAD PUSH1 0xE0 SHR DUP1 PUSH4 0xA10954FE GT PUSH2 0x97 JUMPI DUP1 PUSH4 0xE41DC9F8 GT PUSH2 0x66 JUMPI DUP1 PUSH4 0xE41DC9F8 EQ PUSH2 0x204 JUMPI DUP1 PUSH4 0xEBB6E91C EQ PUSH2 0x20D JUMPI DUP1 PUSH4 0xF2FDE38B EQ PUSH2 0x216 JUMPI DUP1 PUSH4 0xF3FEF3A3 EQ PUSH2 0x229 JUMPI PUSH1 0x0 DUP1 REVERT JUMPDEST DUP1 PUSH4 0xA10954FE EQ PUSH2 0x1B3 JUMPI DUP1 PUSH4 0xB03C770C EQ PUSH2 0x1BC JUMPI DUP1 PUSH4 0xBC1CA3E9 EQ PUSH2 0x1E8 JUMPI DUP1 PUSH4 0xBF2D9E0B EQ PUSH2 0x1FB JUMPI PUSH1 0x0 DUP1 REVERT JUMPDEST DUP1 PUSH4 0x57970E93 GT PUSH2 0xD3 JUMPI DUP1 PUSH4 0x57970E93 EQ PUSH2 0x15E JUMPI DUP1 PUSH4 0x715018A6 EQ PUSH2 0x185 JUMPI DUP1 PUSH4 0x895CE185 EQ PUSH2 0x18F JUMPI DUP1 PUSH4 0x8DA5CB5B EQ PUSH2 0x1A2 JUMPI PUSH1 0x0 DUP1 REVERT JUMPDEST DUP1 PUSH4 0x15638C68 EQ PUSH2 0x105 JUMPI DUP1 PUSH4 0x2B331521 EQ PUSH2 0x121 JUMPI DUP1 PUSH4 0x38613690 EQ PUSH2 0x12A JUMPI DUP1 PUSH4 0x41CFE8AB EQ PUSH2 0x155 JUMPI JUMPDEST PUSH1 0x0 DUP1 REVERT JUMPDEST PUSH2 0x10E PUSH1 0x3 SLOAD DUP2 JUMP JUMPDEST PUSH1 0x40 MLOAD SWAP1 DUP2 MSTORE PUSH1 0x20 ADD JUMPDEST PUSH1 0x40 MLOAD DUP1 SWAP2 SUB SWAP1 RETURN JUMPDEST PUSH2 0x10E PUSH2 0x1388 DUP2 JUMP JUMPDEST PUSH1 0x5 SLOAD PUSH2 0x13D SWAP1 PUSH1 0x1 PUSH1 0x1 PUSH1 0xA0 SHL SUB AND DUP2 JUMP JUMPDEST PUSH1 0x40 MLOAD PUSH1 0x1 PUSH1 0x1 PUSH1 0xA0 SHL SUB SWAP1 SWAP2 AND DUP2 MSTORE PUSH1 0x20 ADD PUSH2 0x118 JUMP JUMPDEST PUSH2 0x10E PUSH2 0xBB8 DUP2 JUMP JUMPDEST PUSH2 0x13D PUSH32 0x0 DUP2 JUMP JUMPDEST PUSH2 0x18D PUSH2 0x23C JUMP JUMPDEST STOP JUMPDEST PUSH2 0x18D PUSH2 0x19D CALLDATASIZE PUSH1 0x4 PUSH2 0x7E5 JUMP JUMPDEST PUSH2 0x250 JUMP JUMPDEST PUSH1 0x0 SLOAD PUSH1 0x1 PUSH1 0x1 PUSH1 0xA0 SHL SUB AND PUSH2 0x13D JUMP JUMPDEST PUSH2 0x10E PUSH1 0x4 SLOAD DUP2 JUMP JUMPDEST PUSH1 0x1 SLOAD PUSH1 0x2 SLOAD PUSH1 0x3 SLOAD PUSH1 0x4 SLOAD PUSH1 0x40 DUP1 MLOAD SWAP5 DUP6 MSTORE PUSH1 0x20 DUP6 ADD SWAP4 SWAP1 SWAP4 MSTORE SWAP2 DUP4 ADD MSTORE PUSH1 0x60 DUP3 ADD MSTORE PUSH1 0x80 ADD PUSH2 0x118 JUMP JUMPDEST PUSH2 0x18D PUSH2 0x1F6 CALLDATASIZE PUSH1 0x4 PUSH2 0x807 JUMP JUMPDEST PUSH2 0x2AC JUMP JUMPDEST PUSH2 0x10E PUSH1 0x1 SLOAD DUP2 JUMP JUMPDEST PUSH2 0x10E PUSH2 0x7D0 DUP2 JUMP JUMPDEST PUSH2 0x10E PUSH1 0x2 SLOAD DUP2 JUMP JUMPDEST PUSH2 0x18D PUSH2 0x224 CALLDATASIZE PUSH1 0x4 PUSH2 0x7E5 JUMP JUMPDEST PUSH2 0x420 JUMP JUMPDEST PUSH2 0x18D PUSH2 0x237 CALLDATASIZE PUSH1 0x4 PUSH2 0x820 JUMP JUMPDEST PUSH2 0x45E JUMP JUMPDEST PUSH2 0x244 PUSH2 0x5FE JUMP JUMPDEST PUSH2 0x24E PUSH1 0x0 PUSH2 0x62B JUMP JUMPDEST JUMP JUMPDEST PUSH2 0x258 PUSH2 0x5FE JUMP JUMPDEST PUSH1 0x5 DUP1 SLOAD PUSH1 0x1 PUSH1 0x1 PUSH1 0xA0 SHL SUB NOT AND PUSH1 0x1 PUSH1 0x1 PUSH1 0xA0 SHL SUB DUP4 AND SWAP1 DUP2 OR SWAP1 SWAP2 SSTORE PUSH1 0x40 MLOAD TIMESTAMP DUP2 MSTORE PUSH32 0x3B18696BDCB9C4F995935BBAC37F4FC6139B8C1317130878F3B675A849A8B868 SWAP1 PUSH1 0x20 ADD PUSH1 0x40 MLOAD DUP1 SWAP2 SUB SWAP1 LOG2 POP JUMP JUMPDEST PUSH1 0x0 DUP2 GT PUSH2 0x2F6 JUMPI PUSH1 0x40 MLOAD PUSH3 0x461BCD PUSH1 0xE5 SHL DUP2 MSTORE PUSH1 0x20 PUSH1 0x4 DUP3 ADD MSTORE PUSH1 0x12 PUSH1 0x24 DUP3 ADD MSTORE PUSH18 0x416D6F756E74206D757374206265203E203 PUSH1 0x74 SHL PUSH1 0x44 DUP3 ADD MSTORE PUSH1 0x64 ADD JUMPDEST PUSH1 0x40 MLOAD DUP1 SWAP2 SUB SWAP1 REVERT JUMPDEST PUSH2 0x32B PUSH1 0x1 PUSH1 0x1 PUSH1 0xA0 SHL SUB PUSH32 0x0 AND CALLER ADDRESS DUP5 PUSH2 0x67B JUMP JUMPDEST PUSH1 0x0 PUSH2 0x2710 PUSH2 0x33C PUSH2 0x1388 DUP5 PUSH2 0x860 JUMP JUMPDEST PUSH2 0x346 SWAP2 SWAP1 PUSH2 0x87D JUMP JUMPDEST SWAP1 POP PUSH1 0x0 PUSH2 0x2710 PUSH2 0x359 PUSH2 0xBB8 DUP6 PUSH2 0x860 JUMP JUMPDEST PUSH2 0x363 SWAP2 SWAP1 PUSH2 0x87D JUMP JUMPDEST SWAP1 POP PUSH1 0x0 DUP2 PUSH2 0x372 DUP5 DUP7 PUSH2 0x89F JUMP JUMPDEST PUSH2 0x37C SWAP2 SWAP1 PUSH2 0x89F JUMP JUMPDEST SWAP1 POP DUP4 PUSH1 0x1 PUSH1 0x0 DUP3 DUP3 SLOAD PUSH2 0x390 SWAP2 SWAP1 PUSH2 0x8B2 JUMP JUMPDEST SWAP3 POP POP DUP2 SWAP1 SSTORE POP DUP3 PUSH1 0x2 PUSH1 0x0 DUP3 DUP3 SLOAD PUSH2 0x3A9 SWAP2 SWAP1 PUSH2 0x8B2 JUMP JUMPDEST SWAP3 POP POP DUP2 SWAP1 SSTORE POP DUP2 PUSH1 0x3 PUSH1 0x0 DUP3 DUP3 SLOAD PUSH2 0x3C2 SWAP2 SWAP1 PUSH2 0x8B2 JUMP JUMPDEST SWAP3 POP POP DUP2 SWAP1 SSTORE POP DUP1 PUSH1 0x4 PUSH1 0x0 DUP3 DUP3 SLOAD PUSH2 0x3DB SWAP2 SWAP1 PUSH2 0x8B2 JUMP JUMPDEST SWAP1 SWAP2 SSTORE POP POP PUSH1 0x40 DUP1 MLOAD DUP6 DUP2 MSTORE TIMESTAMP PUSH1 0x20 DUP3 ADD MSTORE CALLER SWAP2 PUSH32 0x2F22B7F6E7F7DF7D0EB3D1A543A2B6EB906E76A03540C2D66D2725270A5F6D31 SWAP2 ADD PUSH1 0x40 MLOAD DUP1 SWAP2 SUB SWAP1 LOG2 POP POP POP POP JUMP JUMPDEST PUSH2 0x428 PUSH2 0x5FE JUMP JUMPDEST PUSH1 0x1 PUSH1 0x1 PUSH1 0xA0 SHL SUB DUP2 AND PUSH2 0x452 JUMPI PUSH1 0x40 MLOAD PUSH4 0x1E4FBDF7 PUSH1 0xE0 SHL DUP2 MSTORE PUSH1 0x0 PUSH1 0x4 DUP3 ADD MSTORE PUSH1 0x24 ADD PUSH2 0x2ED JUMP JUMPDEST PUSH2 0x45B DUP2 PUSH2 0x62B JUMP JUMPDEST POP JUMP JUMPDEST PUSH2 0x466 PUSH2 0x5FE JUMP JUMPDEST PUSH1 0x1 PUSH1 0x1 PUSH1 0xA0 SHL SUB DUP3 AND PUSH2 0x4AE JUMPI PUSH1 0x40 MLOAD PUSH3 0x461BCD PUSH1 0xE5 SHL DUP2 MSTORE PUSH1 0x20 PUSH1 0x4 DUP3 ADD MSTORE PUSH1 0xF PUSH1 0x24 DUP3 ADD MSTORE PUSH15 0x496E76616C69642061646472657373 PUSH1 0x88 SHL PUSH1 0x44 DUP3 ADD MSTORE PUSH1 0x64 ADD PUSH2 0x2ED JUMP JUMPDEST PUSH1 0x40 MLOAD PUSH4 0x70A08231 PUSH1 0xE0 SHL DUP2 MSTORE ADDRESS PUSH1 0x4 DUP3 ADD MSTORE PUSH1 0x0 SWAP1 PUSH32 0x0 PUSH1 0x1 PUSH1 0x1 PUSH1 0xA0 SHL SUB AND SWAP1 PUSH4 0x70A08231 SWAP1 PUSH1 0x24 ADD PUSH1 0x20 PUSH1 0x40 MLOAD DUP1 DUP4 SUB DUP2 DUP7 GAS STATICCALL ISZERO DUP1 ISZERO PUSH2 0x515 JUMPI RETURNDATASIZE PUSH1 0x0 DUP1 RETURNDATACOPY RETURNDATASIZE PUSH1 0x0 REVERT JUMPDEST POP POP POP POP PUSH1 0x40 MLOAD RETURNDATASIZE PUSH1 0x1F NOT PUSH1 0x1F DUP3 ADD AND DUP3 ADD DUP1 PUSH1 0x40 MSTORE POP DUP2 ADD SWAP1 PUSH2 0x539 SWAP2 SWAP1 PUSH2 0x8C5 JUMP JUMPDEST SWAP1 POP DUP1 DUP3 GT ISZERO PUSH2 0x582 JUMPI PUSH1 0x40 MLOAD PUSH3 0x461BCD PUSH1 0xE5 SHL DUP2 MSTORE PUSH1 0x20 PUSH1 0x4 DUP3 ADD MSTORE PUSH1 0x14 PUSH1 0x24 DUP3 ADD MSTORE PUSH20 0x496E73756666696369656E742062616C616E6365 PUSH1 0x60 SHL PUSH1 0x44 DUP3 ADD MSTORE PUSH1 0x64 ADD PUSH2 0x2ED JUMP JUMPDEST PUSH2 0x5B6 PUSH1 0x1 PUSH1 0x1 PUSH1 0xA0 SHL SUB PUSH32 0x0 AND DUP5 DUP5 PUSH2 0x6B7 JUMP JUMPDEST PUSH1 0x40 DUP1 MLOAD DUP4 DUP2 MSTORE TIMESTAMP PUSH1 0x20 DUP3 ADD MSTORE PUSH1 0x1 PUSH1 0x1 PUSH1 0xA0 SHL SUB DUP6 AND SWAP2 PUSH32 0x92CCF450A286A957AF52509BC1C9939D1A6A481783E142E41E2499F0BB66EBC6 SWAP2 ADD PUSH1 0x40 MLOAD DUP1 SWAP2 SUB SWAP1 LOG2 POP POP POP JUMP JUMPDEST PUSH1 0x0 SLOAD PUSH1 0x1 PUSH1 0x1 PUSH1 0xA0 SHL SUB AND CALLER EQ PUSH2 0x24E JUMPI PUSH1 0x40 MLOAD PUSH4 0x118CDAA7 PUSH1 0xE0 SHL DUP2 MSTORE CALLER PUSH1 0x4 DUP3 ADD MSTORE PUSH1 0x24 ADD PUSH2 0x2ED JUMP JUMPDEST PUSH1 0x0 DUP1 SLOAD PUSH1 0x1 PUSH1 0x1 PUSH1 0xA0 SHL SUB DUP4 DUP2 AND PUSH1 0x1 PUSH1 0x1 PUSH1 0xA0 SHL SUB NOT DUP4 AND DUP2 OR DUP5 SSTORE PUSH1 0x40 MLOAD SWAP2 SWAP1 SWAP3 AND SWAP3 DUP4 SWAP2 PUSH32 0x8BE0079C531659141344CD1FD0A4F28419497F9722A3DAAFE3B4186F6B6457E0 SWAP2 SWAP1 LOG3 POP POP JUMP JUMPDEST PUSH2 0x689 DUP5 DUP5 DUP5 DUP5 PUSH1 0x1 PUSH2 0x6F1 JUMP JUMPDEST PUSH2 0x6B1 JUMPI PUSH1 0x40 MLOAD PUSH4 0x5274AFE7 PUSH1 0xE0 SHL DUP2 MSTORE PUSH1 0x1 PUSH1 0x1 PUSH1 0xA0 SHL SUB DUP6 AND PUSH1 0x4 DUP3 ADD MSTORE PUSH1 0x24 ADD PUSH2 0x2ED JUMP JUMPDEST POP POP POP POP JUMP JUMPDEST PUSH2 0x6C4 DUP4 DUP4 DUP4 PUSH1 0x1 PUSH2 0x763 JUMP JUMPDEST PUSH2 0x6EC JUMPI PUSH1 0x40 MLOAD PUSH4 0x5274AFE7 PUSH1 0xE0 SHL DUP2 MSTORE PUSH1 0x1 PUSH1 0x1 PUSH1 0xA0 SHL SUB DUP5 AND PUSH1 0x4 DUP3 ADD MSTORE PUSH1 0x24 ADD PUSH2 0x2ED JUMP JUMPDEST POP POP POP JUMP JUMPDEST PUSH1 0x40 MLOAD PUSH4 0x23B872DD PUSH1 0xE0 SHL PUSH1 0x0 DUP2 DUP2 MSTORE PUSH1 0x1 PUSH1 0x1 PUSH1 0xA0 SHL SUB DUP8 DUP2 AND PUSH1 0x4 MSTORE DUP7 AND PUSH1 0x24 MSTORE PUSH1 0x44 DUP6 SWAP1 MSTORE SWAP2 PUSH1 0x20 DUP4 PUSH1 0x64 DUP2 DUP1 DUP13 GAS CALL SWAP3 POP PUSH1 0x1 PUSH1 0x0 MLOAD EQ DUP4 AND PUSH2 0x751 JUMPI DUP4 DUP4 ISZERO AND ISZERO PUSH2 0x744 JUMPI RETURNDATASIZE PUSH1 0x0 DUP3 RETURNDATACOPY RETURNDATASIZE DUP2 REVERT JUMPDEST PUSH1 0x0 DUP9 EXTCODESIZE GT RETURNDATASIZE ISZERO AND DUP4 AND SWAP3 POP JUMPDEST PUSH1 0x40 MSTORE POP PUSH1 0x0 PUSH1 0x60 MSTORE SWAP6 SWAP5 POP POP POP POP POP JUMP JUMPDEST PUSH1 0x40 MLOAD PUSH4 0xA9059CBB PUSH1 0xE0 SHL PUSH1 0x0 DUP2 DUP2 MSTORE PUSH1 0x1 PUSH1 0x1 PUSH1 0xA0 SHL SUB DUP7 AND PUSH1 0x4 MSTORE PUSH1 0x24 DUP6 SWAP1 MSTORE SWAP2 PUSH1 0x20 DUP4 PUSH1 0x44 DUP2 DUP1 DUP12 GAS CALL SWAP3 POP PUSH1 0x1 PUSH1 0x0 MLOAD EQ DUP4 AND PUSH2 0x7BD JUMPI DUP4 DUP4 ISZERO AND ISZERO PUSH2 0x7B0 JUMPI RETURNDATASIZE PUSH1 0x0 DUP3 RETURNDATACOPY RETURNDATASIZE DUP2 REVERT JUMPDEST PUSH1 0x0 DUP8 EXTCODESIZE GT RETURNDATASIZE ISZERO AND DUP4 AND SWAP3 POP JUMPDEST PUSH1 0x40 MSTORE POP SWAP5 SWAP4 POP POP POP POP JUMP JUMPDEST DUP1 CALLDATALOAD PUSH1 0x1 PUSH1 0x1 PUSH1 0xA0 SHL SUB DUP2 AND DUP2 EQ PUSH2 0x7E0 JUMPI PUSH1 0x0 DUP1 REVERT JUMPDEST SWAP2 SWAP1 POP JUMP JUMPDEST PUSH1 0x0 PUSH1 0x20 DUP3 DUP5 SUB SLT ISZERO PUSH2 0x7F7 JUMPI PUSH1 0x0 DUP1 REVERT JUMPDEST PUSH2 0x800 DUP3 PUSH2 0x7C9 JUMP JUMPDEST SWAP4 SWAP3 POP POP POP JUMP JUMPDEST PUSH1 0x0 PUSH1 0x20 DUP3 DUP5 SUB SLT ISZERO PUSH2 0x819 JUMPI PUSH1 0x0 DUP1 REVERT JUMPDEST POP CALLDATALOAD SWAP2 SWAP1 POP JUMP JUMPDEST PUSH1 0x0 DUP1 PUSH1 0x40 DUP4 DUP6 SUB SLT ISZERO PUSH2 0x833 JUMPI PUSH1 0x0 DUP1 REVERT JUMPDEST PUSH2 0x83C DUP4 PUSH2 0x7C9 JUMP JUMPDEST SWAP5 PUSH1 0x20 SWAP4 SWAP1 SWAP4 ADD CALLDATALOAD SWAP4 POP POP POP JUMP JUMPDEST PUSH4 0x4E487B71 PUSH1 0xE0 SHL PUSH1 0x0 MSTORE PUSH1 0x11 PUSH1 0x4 MSTORE PUSH1 0x24 PUSH1 0x0 REVERT JUMPDEST DUP1 DUP3 MUL DUP2 ISZERO DUP3 DUP3 DIV DUP5 EQ OR PUSH2 0x877 JUMPI PUSH2 0x877 PUSH2 0x84A JUMP JUMPDEST SWAP3 SWAP2 POP POP JUMP JUMPDEST PUSH1 0x0 DUP3 PUSH2 0x89A JUMPI PUSH4 0x4E487B71 PUSH1 0xE0 SHL PUSH1 0x0 MSTORE PUSH1 0x12 PUSH1 0x4 MSTORE PUSH1 0x24 PUSH1 0x0 REVERT JUMPDEST POP DIV SWAP1 JUMP JUMPDEST DUP2 DUP2 SUB DUP2 DUP2 GT ISZERO PUSH2 0x877 JUMPI PUSH2 0x877 PUSH2 0x84A JUMP JUMPDEST DUP1 DUP3 ADD DUP1 DUP3 GT ISZERO PUSH2 0x877 JUMPI PUSH2 0x877 PUSH2 0x84A JUMP JUMPDEST PUSH1 0x0 PUSH1 0x20 DUP3 DUP5 SUB SLT ISZERO PUSH2 0x8D7 JUMPI PUSH1 0x0 DUP1 REVERT JUMPDEST POP MLOAD SWAP2 SWAP1 POP JUMP INVALID LOG2 PUSH5 0x6970667358 0x22 SLT KECCAK256 0xCE 0xEA 0xAD 0xC3 0xBC SWAP15 0xE9 0xAC REVERT SSTORE DUP8 PUSH5 0x64B6C343B6 0x4B 0x22 0xC7 DUP7 KECCAK256 0xBC 0xEF SWAP12 DUP15 PUSH4 0x6B7D3DD8 LOG1 PUSH5 0x736F6C6343 STOP ADDMOD XOR STOP CALLER "},"methodIdentifiers":{"COMPUTE_BPS()":"2b331521","GROWTH_BPS()":"41cfe8ab","RESERVE_BPS()":"e41dc9f8","agentAddress()":"38613690","computeBalance()":"ebb6e91c","depositRevenue(uint256)":"bc1ca3e9","getPnL()":"b03c770c","growthBalance()":"15638c68","linkToken()":"57970e93","owner()":"8da5cb5b","renounceOwnership()":"715018a6","reserveBalance()":"a10954fe","setAgentAddress(address)":"895ce185","totalRevenue()":"bf2d9e0b","transferOwnership(address)":"f2fde38b","withdraw(address,uint256)":"f3fef3a3"}}}}}